:10000000EAC1000019C2000017C2000015C20000BA
:1000100013C2000011C200000FC200000DC2000098
:100020000BC2000009C2000007C2000005C20000A8
:1000300003C2000001C20000FFC10000FDC10000BA
:10004000FBC10000F9C10000F7C10000F5C10000CC
:10005000F3C10000F1C10000EFC100000C94582B67
:10006000EBC100000C9409140C94E013E5C10000EE
:10007000E3C10000E1C10000DFC10000DDC10000FC
:10008000DBC10000D9C10000D7C10000D5C100000C
:10009000D3C10000D1C10000CFC10000CDC100001C
:1000A000CBC10000C9C10000C7C10000C5C100002C
:1000B000C3C10000C1C10000BFC10000BDC100003C
:1000C000BBC10000B9C10000B7C10000B5C100004C
:1000D000B3C10000B1C10000AFC10000ADC100005C
:1000E000ABC10000842A872A762A7A2A7E2ABE2A71
:1000F0008B2A8F2A952A992A9D2AA32AA72AAB2AD6
:10010000BE2AB12AB52AB92A534420696E69746996
:10011000616C697A6174696F6E206661696C65648F
:100120002100636F6E74656E743A00537563636586
:100130007373007374617274696E67006D656D6FBF
:10014000727920667265653A003A003A0020002D07
:10015000002D005570646174696E67205365747476
:10016000696E67732066696E69736865642100440F
:100170006F776E6C6F6164696E6720536574746924
:100180006E6773205570646174652E2E2E004C616D
:1001900073743A0043757272656E743A00436F6D02
:1001A000706172696E672053657474696E6773203D
:1001B00056657273696F6E2E2E2E00436F6E6E65DC
:1001C0006374696F6E3A20636C6F736500486F7378
:1001D000743A200020485454502F312E31002649C3
:1001E000734368616E6E656C424163746976653D08
:1001F000002649734368616E6E656C4141637469A2
:1002000076653D00264973496C6C756D696E617445
:10021000696E673D0026497356616E74696C6C6146
:1002200074696E673D002657616E74656448756D2C
:1002300069646974793D002648756D6964697479EB
:100240003D002657616E74656454656D706572611A
:10025000747572653D002654656D706572617475C4
:1002600072653D003F616374696F6E3D4164644D2A
:100270006561737572650047455420006D65617353
:1002800075726573207075736865642100526566C8
:1002900072657368436C6F636B00436F6E6E65636A
:1002A00074696F6E3A20636C6F736500486F737486
:1002B0003A200020485454502F312E3100474554E5
:1002C000200000002200250028002B002E00310015
:1002D000340002010000050108010B0100002100AB
:1002E000240027002A002D00300033000101000007
:1002F000040107010A0105050505070508080808A6
:10030000020202020A0A08080404040401010101AD
:1003100001010101030303030303030304070707A8
:100320000C0C0C0C0C0C0C0C02020202060606064D
:10033000060606060B0B0B0B0B0B0B0B010210201A
:10034000200808102040102040800201020108040B
:10035000020101020408102040808040201008049F
:1003600002018004020180402010080402010804F8
:10037000020101020408102040800102040810203C
:10038000408000000A0B02090C0D0E08070304014F
:10039000000000000000000000000000000000005D
:1003A000000000000000000000000000000012112A
:1003B000100000000000000000000000000000002D
:1003C00000000000000000006364696E6F707375C8
:1003D00078585B00F83211241FBECFEFD1E2DEBFA8
:1003E000CDBF00E00CBF13E0A0E0B2E0E2EFF4E725
:1003F00000E00BBF02C007900D92A63DB107D9F7F0
:1004000029E0A6EDB3E001C01D92AB31B207E1F7E0
:1004100011E0CBEED1E000E006C021970109802F6A
:10042000FE010E94F233CA3ED10780E00807A9F717
:100430000E94A22B0C94773AE3CDFC01848583FFC4
:100440000DC084A195A1A6A1B7A1448D558D668D3F
:10045000778D841B950BA60BB70B03C080E090E053
:10046000DC01811520E89207A105B10520F08FEF8E
:100470009FE7A0E0B0E008953F924F925F926F92A5
:100480007F928F929F92AF92BF92CF92DF92EF9224
:10049000FF920F931F93CF93DF93CDB7DEB72897CB
:1004A0000FB6F894DEBF0FBECDBF4C01DC01129633
:1004B0008C911297806812968C9312971C964D908F
:1004C0005D906D907C901F971696AD90BC9017979D
:1004D000411451046104710461F4D50118968D91A1
:1004E0009D910D90BC91A02D8D839E83AF83B88785
:1004F00004C04D825E826F827886CD80DE80EF8080
:10050000F884BFEFCB1ADB0AEB0AFB0AF501808DFA
:10051000918DA28DB38D8C159D05AE05BF0528F478
:1005200082E0C82ED12CE12CF12C9E012F5F3F4F91
:10053000B701A601C5010E94800E87FD20C0882357
:1005400041F089819A81AB81BC81892B8A2B8B2BCD
:1005500051F08D819E81AF81B885C816D906EA0613
:10056000FB0679F60CC00FEF1FEF2FEF3FE0B7014E
:10057000A601C5010E941D0E382E811102C0312C2A
:100580001BC0411451046104710451F097018601AC
:10059000B301A201C5010E941D0E811108C0EFCF59
:1005A000D5011896CD92DD92ED92FC921B97F40145
:1005B000C486D586E686F786832D28960FB6F894EE
:1005C000DEBF0FBECDBFDF91CF911F910F91FF9086
:1005D000EF90DF90CF90BF90AF909F908F907F90E3
:1005E0006F905F904F903F900895CF92DF92EF927F
:1005F000FF921F93CF93DF93EC016A017B01122FCF
:100600008B819C81AD81BE8184179507A607B707B2
:1006100009F1CE010E943B0F811103C080E090E000
:100620001FC012FF06C01882CB82DC82ED82FE82E0
:1006300011C089819A81DC01ED91FC910190F081DA
:10064000E02D9E01295F3F4FB701A6011995811149
:10065000EACFE4CF13708881182B1883CE01079658
:10066000DF91CF911F91FF90EF90DF90CF90089591
:10067000CF93DF93FC012081211102C081E045C0AE
:10068000EC01828187FF39C0448955896689778961
:100690008681978121E08096A8DF009729F48981DF
:1006A0008160898380E031C0EC81FD81EF70FF279C
:1006B00025E0EE0FFF1F2A95E1F7DC01AE0FBF1F0B
:1006C0002C91253E61F3288123FF0AC0488D598D66
:1006D0006A8D7B8D5C964D935D936D937C935F9754
:1006E0004C8D5D8D6E8D7F8DE80FF91F538F428F7E
:1006F000758B648B8A818F778A838E819F818096A8
:100700000E943B0F882359F2B9CFDF91CF91089512
:100710000C96AECF6115710579F0FB0101900020B8
:10072000E9F73197AF01461B570BDC01ED91FC91C6
:100730000280F381E02D199480E090E00895FC019F
:10074000AC01455F5F4F80E090E8899F90011124E4
:10075000982F9695922B2191892F820FE417F507F8
:1007600099F708954F925F926F927F928F929F9226
:10077000AF92BF92CF92DF92EF92FF920F931F93AF
:10078000CF93DF93EC014A015B014C845D846E845E
:100790007F84A881AA2309F491C0488959896A896C
:1007A0007B8984169506A606B70609F48DC08114C8
:1007B0009104A104B10429F41C861D861E861F869F
:1007C00078C0A3FF0BC0088D198D2A8D3B8D0815AD
:1007D00019052A053B0508F471C014C0A5FF12C015
:1007E000EE81FF818681978125E0880F991F2A95E8
:1007F000E1F7A0E0B0E088159905AA05BB0508F46B
:100800005DC057C0EE81FF81848190E009968A0126
:100810009B010150110921093109082E04C03695A8
:100820002795179507950A94D2F775016401B1E0F1
:10083000CB1AD108E108F10804C0F694E794D794E4
:10084000C7948A95D2F7C016D106E206F30620F0C7
:10085000452B462B472B81F4A6FF05C0848D958D33
:10086000A68DB78D04C08C8D9D8DAE8DBF8D8C8770
:100870009D87AE87BF8704C0C01AD10AE20AF30A77
:100880008E01045F1F4FC114D104E104F10489F00B
:100890004C855D856E857F8598018E819F810E9444
:1008A000800E91E0C91AD108E108F10818165CF32E
:1008B00005C0888A998AAA8ABB8A06C04C865D864A
:1008C0006E867F8680E001C081E0DF91CF911F912D
:1008D0000F91FF90EF90DF90CF90BF90AF909F90DF
:1008E0008F907F906F905F904F9008952F923F92DE
:1008F0004F925F926F927F928F929F92AF92BF9230
:10090000CF92DF92EF92FF920F931F93CF93DF93DB
:10091000CDB7DEB72C970FB6F894DEBF0FBECDBFB4
:1009200098878F835B014A01DC018C9183FF10C0A3
:1009300012968C9181FF0CC082FF12C0EF81F88566
:10094000408D518D628D738DCF010CDF811108C0F8
:10095000EF81F8858181816081838FEF9FEF8CC16A
:10096000A40160E070E0EF81F88580899189A28917
:10097000B38980959095A095B09584179507A607A3
:10098000B70730F374011F01FCE02F0E311CAF815B
:10099000B88550960D911D912D913C915397E1147E
:1009A000F10409F437C1AF81B88516968D919C91F9
:1009B0001797B901A801E9E076956795579547958E
:1009C000EA95D1F7FC01D380D4221170D1103BC03D
:1009D00001151105C1F51C964D915D916D917C91AC
:1009E0001F97411551056105710569F091010E943C
:1009F000800E87FDADCF811126C08F8198853CDDAB
:100A0000811121C0A5CFEF81F885848D958DA68DAC
:100A1000B78D0097A105B10581F4CF012DDD8823A5
:100A200009F496CFEF81F88584859585A685B785ED
:100A3000848F958FA68FB78F06C0EF81F885848746
:100A40009587A687B787AF81B88516960D90BC911C
:100A5000A02DBE83AD83EF81F885448555856685DD
:100A60007785425051096109710914960C901497C9
:100A700004C0440F551F661F771F0A94D2F7509683
:100A80008D919D910D90BC91A02D480F591F6A1F0B
:100A90007B1F4D0D511D611D711D0115110529F49F
:100AA000E114F2E0FF0608F047C080E092E0801B0E
:100AB000910B67018E159F0508F46C010115110556
:100AC000E9F4AF81B88550964D905D906D907C9023
:100AD000539749825A826B827C8258964D905D90E2
:100AE0006D907C905B9789819A81AB81BC818415E4
:100AF0009505A605B70510F025E001C021E08D8120
:100B00009E81809672DD009709F422CFA601B5017F
:100B1000800F911F0E9432360C0D1D1D01151240D1
:100B200009F065C0AF81B88516968D919C91179795
:100B300080960E943B0F36C0ED81FE8183A194A177
:100B4000A5A1B6A1E114F4E0FF0678F1ED81FE81E4
:100B500032813D192F2D2695321708F4232F022FAD
:100B600010E06801DC2CCC24DD0C481759076A071B
:100B70007B0750F0820F911DA11DB11D4817590729
:100B80006A077B0708F468C0AF81B88516968D9117
:100B90009C911797DC01ED91FC910680F781E02D87
:100BA00095011995811123C0D3CE84179507A60707
:100BB000B70759F4ED81FE8110A244244A94542CC5
:100BC000320143A254A265A276A2EF81F885868104
:100BD0009781DC01ED91FC910280F381E02D95017C
:100BE0001995882309F4B4CEC12C92E0D92EEF8157
:100BF000F88580899189A289B3898C0D9D1DA11DDD
:100C0000B11D808B918BA28BB38BAC0CBD1CEC18EF
:100C1000FD08BDCE58968D919D910D90BC91A02D53
:100C200080179107A207B30748F4EF81F885008F7A
:100C3000118F228F338F828180688283AF81B88544
:100C400012968C9183FD02C0C40116C08F819885D5
:100C50000FDD8111F9CF7CCEAD81BE8190961C92C3
:100C6000909744244A94542C320193964D925D926D
:100C70006D927C92969788CF2C960FB6F894DEBF33
:100C80000FBECDBFDF91CF911F910F91FF90EF90DD
:100C9000DF90CF90BF90AF909F908F907F906F909C
:100CA0005F904F903F902F9008950C961FCECF935A
:100CB000DF931F92CDB7DEB7698341E050E0BE01FC
:100CC0006F5F7F4F0C9612DE0F90DF91CF910895EA
:100CD000FF920F931F93CF93DF931F92CDB7DEB791
:100CE0008C01FC0180899189A289B3899C01AD01A5
:100CF00075E056954795379527957A95D1F7F22F58
:100D0000FF70FF2E11F0611114C0BE016F5F7F4FA5
:100D1000C8010E94F816813019F080E090E01AC0F6
:100D2000F80180899189A289B3894F96A11DB11DCF
:100D300004C08096A11DB11DF801808B918BA28B00
:100D4000B38BF801868197818796F0E2FF9E800D34
:100D5000911D11240F90DF91CF911F910F91FF9062
:100D600008952F923F924F925F926F927F928F924F
:100D70009F92AF92BF92CF92DF92EF92FF920F932A
:100D80001F93CF93DF93CDB7DEB72B970FB6F894B1
:100D9000DEBF0FBECDBF1C018B01FA014181528124
:100DA0005B834A83DB018C91807709F46AC3D101AC
:100DB0008C91811166C39081937009F456C38A8126
:100DC0009B810C966DE070E00E94CB338824839465
:100DD000860E29833F011B870A8740E050E0BA0155
:100DE000C801C0DCE12CB12CF12C912C00E010E00A
:100DF00018866301B6E0CB0ED11C8DE0A82EEA85E3
:100E0000FB8580899189A289B3899C01AD01B5E0F8
:100E10005695479537952795BA95D1F72C833D83FD
:100E20004E835F834C805D8061E0CF0151DF00978E
:100E300041F4AA85BB8511968C91882309F494C04E
:100E400020C3FC012081253E11F021110AC00111AF
:100E500002C0EC80BD80081508F40F5F211105C0A9
:100E600083C0081508F404C302C0253EF1F12E32F8
:100E7000E1F1DC011B963C911B973F3009F056C015
:100E8000111108C026FFBBCF122F1F711D96FC90B9
:100E9000912E07C09A94291128C0FC012585F212D1
:100EA00024C0492D50E041505109A49E9001A59EB7
:100EB000300D11244A815B8124173507B0F4FC0101
:100EC00060E0653018F48181928107C06B3018F4BE
:100ED0008481958102C086819781AA81BB812A176E
:100EE0003B0729F4892B09F48ACF10E088CF8F3F84
:100EF000910509F0D0F74FEB480F4A3110F0782FE9
:100F000002C070E2780FC9010196D30113964D918A
:100F10005C911497DA01A20FB31F2C913FEB320FB3
:100F20003A3108F4205E7213E0CFA4C233FDDDCF66
:100F3000112339F0B1E09B12A4C201DC8F11A1C2D0
:100F40000FC04BE050E0B6010E942536892B09F016
:100F500056CFF301808180FF03C0E1E0E8874FCFE7
:100F6000F981F7FFE5C18DC289818274823409F06D
:100F700088C2002351F04E2C5B2C07C060E08A85AC
:100F80009B85A6DE892B21F00F5F0815B8F37BC087
:100F9000AA85BB8511968C91882309F474C071C20F
:100FA000EA85FB85808185FD6CC280899189A28953
:100FB000B38981159E4FAF41B10508F062C28A85A1
:100FC0009B855ADA882309F45CC2AA85BB851696EC
:100FD000ED91FC9117971C96CD90DD90ED90FC90D3
:100FE0001F97B2E0CB1AD108E108F108048004C0D1
:100FF000CC0CDD1CEE1CFF1C0A94D2F78089918971
:10100000A289B389C80ED91EEA1EFB1E25E0B701CE
:10101000A601CF018096E9DA5C01009709F431C29C
:10102000FC0120E032E0119221503040E1F711E064
:10103000AA85BB851696ED91FC91179782811817AA
:1010400030F190E0A0E0B0E06C017D01A9E0CC0CB3
:10105000DD1CEE1CFF1CAA95D1F7AA85BB85509616
:101060004D915D916D917C9153974C0D5D1D6E1D61
:101070007F1D50964D935D936D937C935397828122
:101080008230D0F4005F081508F48ACF15C0A08123
:10109000B18112960D90BC91A02D9501B701A601CA
:1010A000410F511D611D711DCF01FD01199588234F
:1010B00009F4E7C11F5FBCCFB885BB2309F473C037
:1010C000F301D58002E010E07EE7C72E7301F6E061
:1010D000EF0EF11C40C0B3E0BD1510F493E0D92E23
:1010E00094E09D0D822F8F70E92FF0E08A3008F098
:1010F00053C0805DE60DF71D868384E03695279505
:101100008A95E1F79150D91668F3F301ED0DF11DC1
:10111000C68240E050E0BA018A859B8523DB61E00E
:101120008A859B85D5DD0097C9F1DC012C912223AE
:10113000D1F11B962C9123FDF2CF4BE050E0BC0186
:10114000C7010E942536892B51F70F5F1F4F0436C8
:10115000110509F496C1D30111964D915C91129736
:101160009801240F351F1396ED91FC9114974E0FA3
:101170005F1FE417F50709F4AECFC90165E0880FDA
:10118000991F6A95E1F7280F391F8191082E000CED
:10119000990B28273927EDCF895CACCFEA85FB85F1
:1011A000818181116EC1A20160E070E015E0440F01
:1011B000551F661F771F1A95D1F78A859B85D2DA4E
:1011C000882309F45EC11FEF180DA12E0FE07301F3
:1011D000B6E0EB0EF11CBDE0BB2EAA2009F45FC007
:1011E00060E08A859B8574DD6C01892B09F449C117
:1011F000AA85BB851696ED91FC91179780A1816019
:1012000080A32A2DA11201C02064F6012083038748
:101210001486C701298793DAD6011D968C931D97F2
:101220005B961C921E925A97F30143815481298543
:101230002F7130E021503109B29EC001B39E900D54
:101240001124F60160E02A813B818217930740F464
:10125000DA01A80FB91F2C91022E000C330B0CC021
:1012600021E030E0AA81BB818A179B0711F420E0BE
:1012700030E0319521953109653018F432832183AE
:1012800007C06B3018F43583248302C0378326836C
:101290006F5F019632966D30B1F6AA949ECFEA85C3
:1012A000FB854089518962897389A5E076956795A8
:1012B00057954795AA95D1F72A0160E0CF0108DD3F
:1012C000009709F4DEC020E2DC011D922A95E9F7BF
:1012D000F30136962BE0DC0101900D922A95E1F79F
:1012E000F30120812871DC011C962C931C9721E2CC
:1012F00038E251963C932E93509740E058E01F9669
:101300005C934E931E9753963C932E935297599607
:101310003C932E93589757965C934E935697AA8575
:10132000BB851696ED91FC91179780A1816080A3F3
:1013300080E2F10111928A95E9F7AA85BB8516969C
:101340008D919C911797F1019783868355824482F2
:101350005C964D915D916D917C915F97408751872F
:1013600062877387F201EF70FF27DC01979635E003
:10137000EE0FFF1F3A95E1F7AD014E0F5F1FDA0147
:101380001B962C9123FF03C0F10110827AC0DC016F
:10139000AE0FBF1FD2962C912771D1012C93DA0189
:1013A0001B963C91387119F42860D1012C93D1011E
:1013B00013961C9313972981227319F02C91217194
:1013C00019F729812F70D10112962C93DC01939685
:1013D0004D915D916D917C919697D10154964D936D
:1013E0005D936D937C935797E80FF91F43AD54AD10
:1013F00060E070E0BA0155274427DF01AF5BBF4FC3
:101400000D911C9120E030E0402B512B622B732B6F
:10141000B981B4FF09C0411551056105710599F104
:10142000DFD4811130C0B0CFD1015C964D935D9374
:101430006D937C935F97ED5BFF4F80819181A281DB
:10144000B381F101808F918FA28FB38FF981F5FF66
:101450001FC0D10158964D915D916D917C915B9724
:10146000C10180D9811114C08FCF88248394B1CC5D
:1014700000E0FDCC6F5F32966D3009F4C0CC9C016A
:1014800020CD80E006C0F101828180688283DECFBA
:1014900081E02B960FB6F894DEBF0FBECDBFDF9173
:1014A000CF911F910F91FF90EF90DF90CF90BF9061
:1014B000AF909F908F907F906F905F904F903F90F4
:1014C0002F900895FC018081811114C080E2DF011A
:1014D000982F1D929A95E9F777836683DB0115961D
:1014E0009C91903119F0903229F480E4808381E05E
:1014F0008283089580E00895CF93DF93EC01B8D8FC
:101500001882DF91CF9108958EBD0DB407FEFDCFF7
:1015100008958FEF8EBD0DB407FEFDCF8EB50895F3
:101520001F93CF93DF93FC01828181111EC035810F
:1015300090E082E0831778F0EF01892F806A86952A
:101540008CBD917011E091279DBD60E083810E9468
:10155000552A1A830AC0973078F7880F953010F013
:1015600022E001C021E0920FE5CFDF91CF911F91E2
:101570000895CF93DF93FC012281222341F0EC01F7
:1015800061E083810E94552A8FEFBEDF1A82DF91CE
:10159000CF9108950F931F93CF93DF938C01862FE4
:1015A000EA01B2DF88818EBD8981FE013296DE5F5D
:1015B0000DB407FEFDCF8EBDEC17FD0711F0819134
:1015C000F7CF0DB407FEFDCF8FEF9EDF8FEF9CDFCF
:1015D000A0DFF8018683982F9F71953031F083E169
:1015E0008483C801C6DF80E001C081E0DF91CF9134
:1015F0001F910F910895EF92FF921F93CF93DF9366
:1016000000D01F92CDB7DEB77C01162F29833A8315
:101610004B835C83FC018281811102C0C70180DFA2
:101620000E945C27812F80646FDF8C816DDF8B814E
:101630006BDF8A8169DF898167DF112311F087E819
:1016400001C085E961DF1C3009F463DF10E061DF70
:10165000F701868387FF04C01F3F11F01F5FF7CF9C
:101660000F900F900F900F90DF91CF911F91FF90EF
:10167000EF900895CF93DF931F92CDB7DEB7BE01F1
:101680006F5F7F4F0E94F816019719F4898190E0EF
:1016900002C08FEF9FEF0F90DF91CF9108950C96CE
:1016A000E9CF8F929F92AF92BF92CF92DF92EF924B
:1016B000FF92CF93DF93EC018C8C9D8CAE8CBF8C12
:1016C000C88CD98CEA8CFB8C0C96D4DF97FD08C0B3
:1016D0008C8E9D8EAE8EBF8EC88ED98EEA8EFB8E7E
:1016E000DF91CF91FF90EF90DF90CF90BF90AF90C0
:1016F0009F908F9008954F925F926F927F92AF92DA
:10170000BF92CF92DF92EF92FF920F931F93CF93EE
:10171000DF93EC012A013B0159017C0189EBE81AB6
:101720008DEFF80A20E030E0A90167E3C70163DF2D
:10173000980140E050E067E1C7015DDF882321F0B8
:10174000C55BDD4F89E01AC0FE01E25BFD4F808181
:10175000833039F089E0440C551C661C771C8A954F
:10176000D1F7A301920169E1C70145DF811103C0EF
:10177000C12CD12C12C0C55BDD4F87E08883C70127
:10178000F8DE28C0A5016CEFC70104DF8823B9F398
:101790008FEFC81AD80A8EEFB81AC016D10641F0DA
:1017A0000E945C278111EECFC55BDD4F87E1E6CF5C
:1017B0000E945C27882351F08DEFA6DE0E945C27F3
:1017C000182F882319F0C701D4DE07C0C55BDD4F91
:1017D00082E18883C701CDDE10E0812FDF91CF91B8
:1017E0001F910F91FF90EF90DF90CF90BF90AF903F
:1017F0007F906F905F904F900895EF92FF920F93BC
:101800001F93CF93DF93EC0179018C01095B1D4F8E
:10181000FC01E25BFD4F8081833039F089E0440FA9
:10182000551F661F771F8A95D1F79A01AB0168E1B2
:10183000C801E1DE882329F0C55BDD4F86E088839F
:101840000AC0A7016EEFC801A5DEC82F882319F0D2
:10185000C8018FDE03C0C8018CDEC0E08C2FDF9191
:10186000CF911F910F91FF90EF900895AF92BF928B
:10187000CF92DF92EF92FF920F931F93CF93DF935C
:10188000EC0159017C0189EBE81A8DEFF80AFE01A1
:10189000E25BFD4F8081833039F089E0440F551FB2
:1018A000661F771F8A95D1F79A01AB0162E1C701E4
:1018B000A2DE811103C0C12CD12C0FC0C55BDD4F4E
:1018C00085E019C0B501C7010E94162B8823D9F005
:1018D0008FEFC81AD80A8EEFB81AC016D10691F742
:1018E00020E030E0A9016CE0C70185DE882341F0EB
:1018F000C55BDD4F83E08883C7013BDE80E003C02A
:10190000C70137DE81E0DF91CF911F910F91FF90EA
:10191000EF90DF90CF90BF90AF900895EF92FF923D
:101920000F931F93CF93DF93EC0179018C01095B37
:101930001D4FFC01E25BFD4F8081833039F089E06F
:10194000440F551F661F771F8A95D1F79A01AB0187
:1019500061E1C80150DE882329F0C55BDD4F84E0DA
:1019600088830AC0B701C8010E94162BC82F88239C
:1019700019F0C801FEDD03C0C801FBDDC0E08C2FFB
:10198000DF91CF911F910F91FF90EF9008952C98C8
:1019900008958EBD00000DB407FEFDCF8EB50895ED
:1019A0009B0190E00496982F8827642F820F931F45
:1019B0000C941E1F0F931F93CF93DF931F92CDB7ED
:1019C000DEB790E00496982F88278C01060F171F2A
:1019D000DEDF8FE0DEDF812FDCDF802FDADF80E0EB
:1019E000D8DF89830E94BF1E89810F90DF91CF913C
:1019F0001F910F9108951F93CF93DF93182F66E2E5
:101A000070E0D8DFC82FD0E067E270E0812FD2DF2E
:101A1000DC2FCC279E01282BC901DF91CF911F918C
:101A200008951F93CF93DF93182F60E270E0C2DF19
:101A3000C82FD0E061E270E0812FBCDFDC2FCC2723
:101A40009E01282BC901DF91CF911F910895CF935B
:101A5000DF93C82FD62F472F60E170E0A1DF4D2F15
:101A600061E170E08C2FDF91CF919ACF90E0982FB9
:101A7000882744E050E0845F9B4F0C94F01E08954B
:101A80008CBD9DBD08951F93CF93DF931F921F922E
:101A9000CDB7DEB7182F80E590E069837A83F0DF59
:101AA00021E041E050E069817A81812FF6D681E022
:101AB00090E00F900F90DF91CF911F910895FF92CA
:101AC0000F931F93CF93DF93F82E80E590E0D8DF3C
:101AD000C0E0D0E08F2D8FDF8C01892B19F08F2D86
:101AE0008ADFEC01C017D107A9F7CE01DF91CF91B2
:101AF0001F910F91FF900895AF92BF92CF92DF9206
:101B0000EF92FF921F93CF93DF93182F5B017A011F
:101B100080E590E0B5DFC0E0D0E0812F6CDF6C01A4
:101B2000892B19F0812F67DFEC01CC15DD05A9F7B2
:101B3000209791F463E070E0812F3CDF8431E1F085
:101B40008823D1F0C1E0D0E08C3111F4C0E0D0E0C6
:101B5000D195C195D10910C0EC16FD060CF4E70132
:101B60001C161D064CF420E0AE01B501812F95D660
:101B700060E470E0812F83D6CE01DF91CF911F9179
:101B8000FF90EF90DF90CF90BF90AF900895CF93EC
:101B9000C82F80E590E074DF60E170E08C2F6FD695
:101BA0004FEF62E070E08C2FCF91FACEFF920F934F
:101BB0001F93CF93DF931F921F92CDB7DEB7F82EFE
:101BC0008A012A836983E3DF80E590E059DF2A8177
:101BD0006981462F422B60E070E08F2DE1DE011518
:101BE000110551F400913F04109140040F5F1F4F05
:101BF0001093400400933F04412F64E070E08F2D68
:101C0000CFDE402F65E070E08F2DCADE61E070E02E
:101C10008F2D35D681E00F900F90DF91CF911F91DE
:101C20000F91FF900895CF93C82F80E590E028DFB3
:101C300063E070E08C2FCF91BDCE8F929F92AF92D8
:101C4000BF92CF92DF92EF92FF920F931F936A01A0
:101C50007B0148015901FC012581203251F544895D
:101C600055896689778997018601E7E0369527953A
:101C700017950795EA95D1F7400F511F621F731F03
:101C800023E080960E94F502009711F480E02DC0B9
:101C9000E894C7F8DD24EE24FF24CC0CDD1CCC0C2A
:101CA000DD1CFC01EC0DFD1D80829182A282B382BD
:101CB0001BC0203159F7FC01448955896689778911
:101CC0004D0D511D611D711D23E080960E94F5028E
:101CD0000097E1F2DD24EE24FF24CC0CDD1CFC0196
:101CE000EC0DFD1D9182808281E01F910F91FF908C
:101CF000EF90DF90CF90BF90AF909F908F9008951E
:101D0000CF92DF92EF92FF920F931F93CF93DF93C7
:101D1000EC016A017B0189018D81803251F58C894A
:101D20009D89AE89BF89E7E0769567955795479578
:101D3000EA95D1F7480F591F6A1F7B1F22E0CE0199
:101D400080960E94F502009711F48FEF40C0E8944E
:101D5000C7F8DD24EE24FF24CC0CDD1CCC0CDD1CEC
:101D6000FC01EC0DFD1D80819181A281B381BF70CA
:101D70001DC0803151F74C895D896E897F894D0D79
:101D8000511D611D711D22E0CE0180960E94F50259
:101D90000097D9F2DD24EE24FF24CC0CDD1CFC01DD
:101DA000EC0DFD1D80819181A0E0B0E0488D598D42
:101DB0006A8D7B8D481759076A077B0738F0F80151
:101DC00080839183A283B38381E001C080E0DF91AF
:101DD000CF911F910F91FF90EF90DF90CF900895DA
:101DE0009F92AF92BF92CF92DF92EF92FF920F93AA
:101DF0001F93CF93DF9300D01F92CDB7DEB75C0166
:101E00006A017B019E012F5F3F4FB701A601C5010B
:101E100077DF982E87FF02C080E01DC000E010E051
:101E20009801B701A601C50108DF8823A9F3F501D0
:101E30004085518562857385C416D506E606F7068A
:101E400020F4C086D186E286F386C980DA80EB80F2
:101E5000FC809110D7CF0F900F900F900F90DF91D3
:101E6000CF911F910F91FF90EF90DF90CF90BF9097
:101E7000AF909F9008958F929F92AF92BF92EF92F2
:101E8000FF921F93CF93DF93DC012C9120FF3BC087
:101E9000EC0189819A817D01B7E0EB0EF11CDC0138
:101EA000ED91FC914B815C816D817E810280F3819B
:101EB000E02D97011995182F811102C010E024C060
:101EC000888181FD04C088818E7F88831DC0A9819F
:101ED000BA81ED91FC9111971C968D909D90AD90DB
:101EE000BC901F974B815C816D817E81480D591D8F
:101EF0006A1D7B1D0280F381E02D9701CD011995AC
:101F00008111E1CFDBCF11E0812FDF91CF911F91C4
:101F1000FF90EF90BF90AF909F908F900895CF92D9
:101F2000DF92EF92FF920F931F93CF93DF936C0199
:101F30007A018B01C0E0D0E0CE15DF0589F0D80131
:101F40006D918D01D601ED91FC910190F081E02D14
:101F5000C6011995892B11F47E0102C02196ECCFA0
:101F6000C701DF91CF911F910F91FF90EF90DF900C
:101F7000CF900895FC01918D828D981761F0828D2C
:101F8000DF01A80FB11D5D968C91928D9F5F9F73AD
:101F9000928F90E008958FEF9FEF0895FC01918D4F
:101FA000828D981731F0828DE80FF11D858D90E0BC
:101FB00008958FEF9FEF0895FC01918D228D892F59
:101FC00090E0805C9F4F821B91098F739927089541
:101FD00082E595E0F1DF21E0892B09F420E0822FF2
:101FE0000895FC01848DDF01A80FB11DA35ABF4FD6
:101FF0002C91848D90E001968F739927848FA68908
:10200000B7892C93A089B1898C9180648C93938D2E
:10201000848D981306C00288F389E02D80818F7D1E
:1020200080830895EF92FF920F931F93CF93DF93D6
:10203000EC0181E0888F9B8D8C8D981305C0E88919
:10204000F989808185FD23C0F62E0B8D10E00F5F8E
:102050001F4F0F731127E02E8C8DE8120BC00FB6A7
:1020600007FCFACFE889F989808185FFF5CFCE0199
:10207000B8DFF2CF8B8DFE01E80FF11DE35AFF4F61
:10208000F0820B8FEA89FB898081806207C0EE892C
:10209000FF896083E889F98980818064808381E099
:1020A00090E0DF91CF911F910F91FF90EF900895F5
:1020B000CF93DF93EC01888D8823C1F0EA89FB89F7
:1020C000808185FD05C0A889B9898C9186FD0EC0E7
:1020D0000FB607FCF5CF808185FFF2CFA889B989BB
:1020E0008C9185FFEDCFCE017CDFE8CFDF91CF91E2
:1020F000089580E090E0892B19F06ADF811125C0F6
:1021000080E090E0892B41F080E090E0892B21F085
:102110000E94000081111CC080E090E0892B41F0FA
:1021200080E090E0892B21F00E940000811113C013
:1021300080E090E0892BA1F080E090E0892B81F095
:102140000E94000081110AC008950E940000D8CFAB
:102150000E940000E1CF0E940000EACF0C94000032
:1021600008950895CF93DF931F92CDB7DEB76983AB
:10217000DC01ED91FC910280F381E02D41E050E023
:10218000BE016F5F7F4F19950F90DF91CF9108953A
:102190000E942136BF92CF92DF92EF92FF920F936F
:1021A0001F93CF93DF9300D000D0CDB7DEB7FC01F3
:1021B000208D243009F048C06A017B018C01B12CCC
:1021C00063E070E08B2DF6DB811103C0F801B08E67
:1021D00006C08831D9F3B394F4E0BF12F1CFF8010F
:1021E000808D843089F196E0E5EBF2E0DE01119616
:1021F00001900D929A95E1F7F70193819F779C8367
:1022000094819D8395819E83B7016E5F7F4F2EDC05
:10221000B601F801808D1BDCF801808D90E0982FCD
:10222000882746E050E0BE016F5F7F4F8A5F9B4F7B
:102230000E94F01EF801128E118E20E8A60162E0C5
:10224000808DB4DC81E001C080E026960FB6F89462
:10225000DEBF0FBECDBFDF91CF911F910F91FF90D9
:10226000EF90DF90CF90BF900895CF93DF931F92B0
:10227000CDB7DEB7FC01218D328D232B41F0BE019D
:102280006F5F7F4F808DFFDB898190E002C08FEF11
:102290009FEF0F90DF91CF910895CF93DF93FC01D3
:1022A000218D328D2115310519F48FEF9FEF10C06C
:1022B000EC014217530708F0A901888D1DDC1816A0
:1022C00019069CF7298D3A8D281B390B3A8F298FD7
:1022D000DF91CF9108950F931F93CF93DF931F92B8
:1022E000CDB7DEB7FC01218D328D232B59F08C0147
:1022F00041E050E0BE016F5F7F4F808DFDDB18161F
:1023000019061CF08FEF9FEF08C0F801818D928DA8
:102310000197928F818F898190E00F90DF91CF910B
:102320001F910F9108950F931F93CF93DF93CDB714
:10233000DEB728970FB6F894DEBF0FBECDBF8C0175
:10234000F801818D928D892B49F0D801ED91FC9196
:102350000680F781E02DC8011995F2CF808DAFDBA3
:102360001816190654F548E050E0BE016F5F7F4F24
:10237000D80158968C91C0DB9C0118161906DCF424
:1023800089819A81AB81BC81F801808B918BA28B72
:10239000B38B8D8190E0982F88272E81820F911D1D
:1023A000958B848B2F8130E0322F22278885280F50
:1023B000311D328F218FC90102C080E090E0289644
:1023C0000FB6F894DEBF0FBECDBFDF91CF911F9146
:1023D0000F910895AF92BF92CF92DF92FF920F9329
:1023E0001F93CF93DF938C015B01EA01FC01C68848
:1023F000D788F08C80E590E043DB8F2DB7D38C1726
:102400009D0718F48F2DB2D3EC019E01A501B601F2
:102410008F2D47D334DBF801868997898C0F9D1F58
:10242000978B868BCE01DF91CF911F910F91FF90FB
:10243000DF90CF90BF90AF900895FF920F931F93BE
:10244000CF93DF93FB01DC0157961C921E925697A7
:102450005896FC908281811109C08381811106C048
:102460008481811103C085818823A1F04115510524
:1024700089F08A01EF0180E590E002DBBE016E5F2A
:102480007F4F8F2DF3DAB8018F2DE1DAF8DA81E092
:1024900090E002C080E090E0DF91CF911F910F911A
:1024A000FF900895CF93FC01C08D80E590E0E8DABD
:1024B00060E270E08C2FE3D162E070E08C2F7ADA7A
:1024C00084FD14C062E070E08C2F74DA83FF09C0D1
:1024D00048E162E070E08C2F63DAD1DA80E090E0CE
:1024E0000DC0CDDA80E590E0CBDAE6CF40E162E0E6
:1024F00070E08C2F55DAC3DA81E090E0CF91089537
:10250000CF92DF92EF92FF920F931F93CF93DF93BF
:10251000CDB7DEB7AF970FB6F894DEBF0FBECDBF15
:102520007C016A0104E513E01A8309831C861B867B
:1025300088EE93E0A0E0B0E08D879E87AF87B88BF0
:1025400083E492E09A878987188F0F8B198E1A8EF1
:102550001B8E1C8E84E089A31DA30CA31EA21FA2A8
:1025600018A619A68091F1059091F205A091F305A6
:10257000B091F4058CA79DA7AEA7BFA78B839C83C2
:10258000AD83BE8318861F82AE014C5D5F4FCE01C6
:102590000196EDD781309105B1F4D701ED91FC9111
:1025A0000088F189E02D1BA70AA78EA19FA1A8A5ED
:1025B000B9A58CA79DA7AEA7BFA7A601BE01665D62
:1025C0007F4FC7011995AF960FB6F894DEBF0FBEC7
:1025D000CDBFDF91CF911F910F91FF90EF90DF90D2
:1025E000CF9008954F925F926F927F92EF92FF92F9
:1025F0000F931F93CF93DF93CDB7DEB7A1970FB69D
:10260000F894DEBF0FBECDBF7C01FA01CB0119A249
:10261000223008F42AE08E010F5D1F4F422E512C0C
:10262000612C712CBF01A30192010E94463AF9016D
:10263000CA01015011096A3014F4605D01C0695C7F
:10264000D8016C93232B242B252B61F7B801C701EC
:102650000E948A03A1960FB6F894DEBF0FBECDBFCD
:10266000DF91CF911F910F91FF90EF907F906F902E
:102670005F904F9008950F931F93CF93DF93EC01DA
:102680000E948A038C0169EA73E0CE010E948A03EA
:10269000800F911FDF91CF911F910F910895DC0161
:1026A000ED91FC910190F081E02D19948F929F9211
:1026B000AF92BF92CF92DF92EF92FF920F931F9350
:1026C000CF93DF937C018B016C0182E0C80ED11C9B
:1026D0004701E5E08E0E911CC0E0D0E0F60141918B
:1026E0006F0150E060E070E02AE0C8017BDF5C0130
:1026F0006EE2C801D4DF8A0D9B1DC80FD91FC81414
:10270000D90461F7F701458150E060E070E02AE00C
:10271000C80168DF8C0F9D1FDF91CF911F910F9132
:10272000FF90EF90DF90CF90BF90AF909F908F90F1
:102730000895EF92FF920F931F93CF93DF938C0135
:102740007B01C0E0D0E0F701EC0FFD1F6491662330
:1027500061F0D801ED91FC910190F081E02DC8016C
:102760001995892B11F02196EECFCE01DF91CF91F3
:102770001F910F91FF90EF9008950F931F93CF93A8
:10278000DF93EC01D6DF8C0169EA73E0CE010E9491
:102790008A03800F911FDF91CF911F910F910895B0
:1027A00024E533E0FC0131832083FB01408151812A
:1027B00062817381FC01428353836483758308952E
:1027C0001F920F920FB60F9211240BB60F922F93F8
:1027D0003F934F935F936F937F938F939F93AF93A9
:1027E000BF93EF93FF9382E595E0FBDBFF91EF91C1
:1027F000BF91AF919F918F917F916F915F914F9119
:102800003F912F910F900BBE0F900FBE0F901F9016
:1028100018951F920F920FB60F9211240BB60F92BC
:102820002F938F939F93EF93FF93E0916205F09125
:1028300063058081E0916805F091690582FD12C011
:10284000908180916B058F5F8F7320916C0582174B
:1028500051F0E0916B05F0E0EE5AFA4F958F8093BE
:102860006B0501C08081FF91EF919F918F912F9116
:102870000F900BBE0F900FBE0F901F901895CF9327
:10288000C82F462F61E070E08BD861E070E08C2F9C
:1028900091D88111FACFCF9108958F929F92AF92E4
:1028A000BF92CF92DF92EF92FF920F931F93CF933D
:1028B000DF93B82E4B018A01A22E68E270E07AD82D
:1028C000C82FD0E069E270E08B2D74D8DC2FCC27C4
:1028D000C82B9E013770CB2CD12CC601880F991FB5
:1028E000AC01465B5A4F6A01FA0180819181820FE7
:1028F000931FA801420F531F4130584098F060E0E9
:1029000078E07B01E21AF30AA701B4010E94C11E1C
:10291000A8014E195F09B4016E0D7F1DF60180817B
:10292000918102C0A801B4010E94C11EA1100CC077
:10293000C00FD11F4D2F68E270E08B2D31D84C2F86
:1029400069E270E08B2D2CD8DF91CF911F910F9110
:10295000FF90EF90DF90CF90BF90AF909F908F90BF
:10296000089580914005909141058E3F910560F05A
:1029700010926508FC01EF5BFB4F108286E698E041
:102980000E94052081E0089580E00895FF920F9352
:102990001F93CF93DF93FF24F39486E698E00E9481
:1029A000B51F811106C086E698E00E948D20892B14
:1029B00069F1D7DF81112AC00091400510914105CE
:1029C000E8012196D0934105C093400586E698E042
:1029D0000E947320F801EF5BFB4F8083CF5BDB4FDE
:1029E00018828091A3088111D8CF63EF72E081E44F
:1029F00094E00E945636892B81F210924105109284
:102A00004005F092A30810924104C7CFDF91CF9107
:102A10001F910F91FF90089586E698E00E94B51FE0
:102A2000811103C01092A308089586E698E00E94E1
:102A30008D20892BB9F761E070E080E090E00E9482
:102A4000D22AEACFCF93DF93EC016DEB72E086E6FA
:102A500098E06FDE6BEC72E086E698E00E948A03F5
:102A6000BE0186E698E00E948A0363EB72E086E688
:102A700098E083DE6CEA72E086E698E05ADE6BEB63
:102A800072E086E698E0F7DD6AE972E086E698E0B3
:102A900074DE69EA73E086E698E0DF91CF910C94EA
:102AA0008A039F92AF92BF92CF92DF92EF92FF92F2
:102AB0000F931F93CF93DF93982E8B015A016901D7
:102AC00064E270E00E94DA0CE82EF12C65E270E01E
:102AD000892D0E94DA0CFE2CEE24E82AE701C00FB3
:102AE000D11F9E013770E92CF12CC701880F991F67
:102AF000AC014E5B5A4F7A01FA0180819181820FBD
:102B0000931FA9014C0D5D1D4130584090F000E02D
:102B100018E0021B130BA801B5010E94F01EA601CC
:102B2000401B510BB501600F711FF701808191812E
:102B300002C0A601B5010E94F01ECC0DDD1D4D2F77
:102B400064E270E0892D0E94D00C4C2F65E270E0A9
:102B5000892DDF91CF911F910F91FF90EF90DF9022
:102B6000CF90BF90AF909F900C94D00CFF920F939A
:102B70001F93CF93DF93F82EC0E0D0E08F2D0E94FB
:102B8000110D8C01892B21F08F2D0E94110DEC016C
:102B9000C017D10799F7CE01DF91CF911F910F9107
:102BA000FF9008958F929F92AF92BF92EF92FF9203
:102BB0000F931F93CF93DF9300D000D0CDB7DEB734
:102BC0000091F5051091F6050115110509F4E8C00D
:102BD0000E940A2B4B015C0178012EE3E20EF11CEE
:102BE000F70180819181A281B381A5019401281B05
:102BF000390B4A0B5B0BCA01B901683E33E073071E
:102C00008105910508F446C028EE33E040E050E02D
:102C10000E94463A861A970AA80AB90AD7018D92E5
:102C20009D92AD92BC921397F80186A597A5A0A995
:102C3000B1A949015A01880C991CAA1CBB1C881512
:102C40009905AA05BB0528F416A617A610AA11AA6D
:102C500009C0821B930BA40BB50BF80186A797A79D
:102C6000A0ABB1ABF80182A993A9A4A9B5A9881515
:102C70009905AA05BB0528F412AA13AA14AA15AA35
:102C800009C0821B930BA40BB50BF80182AB93AB6D
:102C9000A4ABB5ABF80186A597A5A0A9B1A9892BCE
:102CA0008A2B8B2B59F4EE5BFF4F8081833031F4FC
:102CB00084E08083C801D4D6019602C080E090E011
:102CC000D801D2964D915D916D917C91D597452B10
:102CD000462B472B99F4F801EE5BFF4F2081233000
:102CE00011F021110BC01082F8013E9684E1DF0142
:102CF0001D928A95E9F7C801B3D6039682309105F3
:102D000019F0049709F04CC080E590E00E94400D56
:102D10006091F5057091F605625F7F4FCE010196D7
:102D20003FDDCE0103960E9410226091F50570915F
:102D3000F6056A5E7F4FCE01019632DD44E050E039
:102D4000BE016D5F7F4F81E090E00E94F01E6091B8
:102D5000F5057091F6056E5E7F4FCE01019620DD80
:102D600044E050E0BE016D5F7F4F85E090E00E943F
:102D7000F01E0E943F0D6091F5057091F605625EB0
:102D80007F4FCE0101960CDD8B819C81AD81BE8190
:102D90008093F1059093F205A093F305B093F405A9
:102DA00010924105109240051092410440E550E018
:102DB0006BEB72E086E698E00E949E21019721F479
:102DC00081E08093650803C01092650880E0269634
:102DD0000FB6F894DEBF0FBECDBFDF91CF911F912C
:102DE0000F91FF90EF90BF90AF909F908F900895BC
:102DF0008F929F92AF92BF92DF92EF92FF920F93CA
:102E00001F93CF93DF93EC017B019881992309F401
:102E100042C08A8180FF3FC093FF48C0488D598DD2
:102E20006A8D7B8D088919892A893B89401B510B42
:102E3000620B730B423051056105710590F14889B1
:102E400059896A897B898A01117095FD48C0EE8194
:102E5000FF81D3804A015B0189E0B694A7949794DF
:102E600087948A95D1F7D8200115110509F064C01F
:102E7000D11062C0452B462B472B09F442C04C852C
:102E80005D856E857F859E01245F3F4FCF010E9447
:102E9000800E87FF46C08981826089838FEF9FEF14
:102EA00089C0452B462B472B51F610C095FFC7CF45
:102EB000EE81FF818681978125E0880F991F2A95F1
:102EC000E1F7288939898217930719F480E090E0A7
:102ED0006DC0488959896A897B898A01117099E096
:102EE00076956795579547959A95D1F7EE81FF812D
:102EF000848D958DA68DB78D480F591F6A1F7B1F36
:102F000039C096FF05C0848D958DA68DB78D04C000
:102F10008C8D9D8DAE8DBF8D8C879D87AE87BF8735
:102F20000BC0811109C08881807709F4B4CF81E09A
:102F300090E021E030E03CC0EE81FF814C855D8572
:102F40006E857F854250510961097109048004C072
:102F5000440F551F661F771F0A94D2F78089918905
:102F6000A289B389480F591F6A1F7B1F4D0D511D40
:102F7000611D711D8E819F8120E080960E94F50267
:102F8000009709F488CFFC01E00FF11F8081F70161
:102F9000808388899989AA89BB890196A11DB11D61
:102FA000888B998BAA8BBB8B81E090E020E030E08E
:102FB000821B930BDF91CF911F910F91FF90EF90A8
:102FC000DF90BF90AF909F908F90089580E3FB01BA
:102FD00080833296842F82958F7090E1899F40196B
:102FE00011244A3014F4405D01C0495C4293482FDB
:102FF0008111F0CF08952F923F924F925F926F927E
:103000007F928F929F92AF92BF92CF92DF92EF9278
:10301000FF920F931F93CF93DF93CDB7DEB7E39764
:103020000FB6F894DEBF0FBECDBF7C011A012B0195
:1030300039010E940A2B4B015C0187010D5B1F4F78
:10304000C80171D918161906A4F00E940A2BDC01D8
:10305000CB0188199909AA09BB09281639064A061D
:103060005B06D0F062E370E080E090E00E94D22A3C
:10307000E7CF42E250E0BE016F5F7F4FC8010DD93C
:103080008981823011F080E04FC1F80184899589EF
:1030900083349105C1F702C08FEF46C16D817E81F7
:1030A0008F8198850E94FA334B015C01F3016083A4
:1030B00071838283938346E050E0B701685F7F4F5E
:1030C000CE014D960E942536892BE9F6F7018081C5
:1030D0009181A281B38188169906AA06BB0698F24F
:1030E00084819581A681B78188159905AA05BB05BC
:1030F00050F289899A89AB89BC8986879787A08B8A
:10310000B18B8EECA82EB12CC801E5D8F1E0AF1A36
:10311000B108D1F719A6670182E2C80ED11CF701E8
:10312000B696FBA7EAA7C7018A969DA78CA73C97EE
:103130004F0189969FA78EA73897F9ABE8AB170187
:10314000F6E12F0E311CC5979BAB8AABF801818D40
:10315000928D181619060CF0E6C0C801BCD883334E
:10316000910509F4BBC0ECF481309105A9F11CF480
:10317000892B61F3CCC083309105A9F1069709F042
:10318000C6C0C801A8D85C0144E050E06AA97BA988
:10319000C80183D8412C512CBB24F4E0AF1AB108EC
:1031A0003AC08A33910509F470C03CF48533910527
:1031B00069F0C69709F439C0AAC08B33910509F4A8
:1031C00078C08F3F910509F4C1CFA1C0C80183D851
:1031D000C80181D889A7BACFC8017DD844E050E0A2
:1031E00068A979A935C0C80176D85C0144E050E0EF
:1031F000B101C80152D8412C512CBB2494E0A91A2A
:10320000B1084A145B040CF0A1CFC80164D8EFEFF9
:103210004E1A5E0AF6CF4A145B040CF097CFC80131
:103220005AD88FEF481A580AF6CFC80154D8B82E8A
:10323000F701828D81110FC0838D81110CC0848DA7
:10324000811109C0858D811106C044E050E0B401B0
:10325000C80123D87BCFEEA5FFA5408051806280B6
:103260007380B401CE0183969BDA8DA19EA1AFA19C
:10327000B8A584159505A605B70539F3BB2009F453
:1032800065CFC80128D8BA94F9CFC80124D844E042
:1032900050E06AA57BA5C80100D8F70166A177A117
:1032A00080A591A50E94FA3366A377A380A791A772
:1032B0004DCFC80110D844E050E06CA57DA5C801F1
:1032C0000E944D11F70162A573A584A595A50E94E2
:1032D000FA3362A773A784A795A738CFC8010E94C5
:1032E0006B1144E050E0B601C8010E944D11F70196
:1032F00062A173A184A195A10E94FA3362A373A372
:1033000084A395A366A777A780AB91AB1FCFC80115
:103310000E946B11B82EBB2009F418CFC8010E947F
:103320006B11BA94F8CF89A5E3960FB6F894DEBF77
:103330000FBECDBFDF91CF911F910F91FF90EF9006
:10334000DF90CF90BF90AF909F908F907F906F90C5
:103350005F904F903F902F9008957F928F929F9211
:10336000AF92BF92CF92DF92EF92FF920F931F9393
:10337000CF93DF93CDB7DEB7A6970FB6F894DEBF35
:103380000FBECDBF8C01762E942E852E20E2B22E5C
:10339000CE0101967C01FC012B2D11922A95E9F7B3
:1033A00084E593E09AA389A38FEF8BA38CA38DA3CD
:1033B0008EA3680183E4C80ED11C43E450E0BE0133
:1033C0006F5D7F4FC60139D8019609F4BCC081E01A
:1033D00089838A8386E0A82EAB821C82F8016481EF
:1033E0007581868197810E94FA336D837E838F83F6
:1033F000988789869A8680E890E09C878B874CE145
:1034000050E0B701C6010E94EA11F7012B2D11927D
:103410002A95E9F7480188E0880E911CF401D7014C
:1034200001900D92AA94E1F740E150E0B701C60186
:103430000E94EA11F7011192BA94E9F796E0A92ED9
:10344000B12C40E250E0B701C6010E94EA11F1E060
:10345000AF1AB108B1F783E6898392E89A8393E5BE
:103460009B838C8385E38D8381E08E837F829DE3C4
:10347000988797E099878A8786E0F401DE011B969A
:1034800001900D928A95E1F78CE0898B8A8B6CEA2A
:1034900073E0CE0143960E944F36F8014385BE018A
:1034A000675E7F4FC80192DDF8014485BE01655E0D
:1034B0007F4FC8018BDDF8014585BE01635E7F4FFC
:1034C000C80184DD4EE150E0B701C6010E94EA1157
:1034D000F3E07F121EC082E3898384E08A83F801CF
:1034E00096859B8397859C8390899D8391899E83F4
:1034F00096E39F838887828D8987838D8A87848DD1
:103500008B87858D8C874CE050E0B701C6010E9407
:10351000EA1187E3898386E08A8391E09B8393E0C5
:103520009C838D838FE08E838AE38F838BE38887F0
:103530008FEF898749E050E0B701C6010E94EA1188
:10354000C6010E945212A6960FB6F894DEBF0FBEB7
:10355000CDBFDF91CF911F910F91FF90EF90DF9042
:10356000CF90BF90AF909F908F907F9008952F92B3
:103570003F924F925F926F927F928F929F92AF9203
:10358000BF92CF92DF92EF92FF920F931F93CF9350
:10359000DF93CDB7DEB765970FB6F894DEBF0FBEE9
:1035A000CDBF7C016B013A01FB0120E080E090E09F
:1035B0006AE03191332309F140ED430F4A3080F442
:1035C000689FA001699F500D1124CA01C097830F05
:1035D000911D37FD9A958F3F910559F350F313C014
:1035E0003E3289F4233079F0D301A20FB11D129637
:1035F0008C932F5F80E090E0DCCF233021F4F30147
:10360000858381E020C0F701428153816481758107
:103610008091F9059091FA05A091FB05B091FC0508
:10362000481759076A077B0709F49CC10E940A2BB7
:103630008701085F1F4F6F7077277C5FC801B8D480
:10364000813019F080E090E0F2C184E593E09A8344
:103650008983F70182819381A481B5818B839C83C7
:10366000AD83BE8345E350E0BE016F5F7F4FC8016D
:103670000E941D12892B19F4C12CD12C6FC10E94FC
:103680000A2BF701778366837627672776277A8365
:10369000698342E050E0BE016F5F7F4FC8010E9426
:1036A000EA1181E090E09E878D8742E050E0BE0104
:1036B000635F7F4FC8010E94EA1180E091E09E871E
:1036C0008D8742E050E0BE01635F7F4FC8010E94DA
:1036D000EA111E861D8642E050E0BE01635F7F4F07
:1036E000C8010E94EA1142E050E0BE01635F7F4FD3
:1036F000C8010E94EA1142E050E0BE01635F7F4FC3
:10370000C8010E94EA115601F5018081882311F158
:10371000F6015F018191811115C045018C189D084A
:103720001814190494F48F8641E050E0BE01615FE3
:103730007F4FC8010E94EA11A401B601C8010E948E
:10374000EA1103C08E3229F7E8CF6501FFEFCF1AE7
:10375000DF0ADACF1F8641E050E0BE01615F7F4F94
:10376000C8010E94EA11C12CDD24D394DE86CD86E7
:1037700042E050E0BE01635F7F4FC8010E94EA1142
:10378000DE86CD8642E050E0BE01635F7F4FC80118
:103790000E94EA11C8010E945212892B09F46CCFD1
:1037A00063E0A62EB12CF2E06F0E711C0E940A2B72
:1037B0001B012C01C8010E94931118161906A4F0D0
:1037C0000E940A2BDC01CB0182199309A409B509D7
:1037D00089389341A105B105D0F462E370E080E03F
:1037E00090E00E94D22AE6CFF701428153816481A2
:1037F0007581808D918DA28DB38D481759076A0709
:103800007B0741F4848D958DC59721F406C02FEF79
:103810003FEF9AC02EEF3FEF97C0F70181A192A131
:103820000C970CF4A5C04CE050E0BE016F5F7F4FD9
:10383000C8010E944D118B8190E0982F88272C8120
:10384000822B9A8B898B298130E0322F22274A8163
:10385000242BF701468157814217530709F085C091
:1038600097FF83C08F709270892B09F0DDC0CF80E5
:10387000D12CDC2CCC248885C82AC114D10409F4AD
:10388000D0C0812C912C8D8190E0982F88272E819B
:10389000822B8816990608F46EC0812C912C41E089
:1038A00050E0BE016D5E7F4FC8010E944D118B89B3
:1038B000982F907C09F092C0811185C08B8981116D
:1038C000EECF42E050E0BE01615F7F4FC8010E9431
:1038D0004D1142E050E0BE01635F7F4FC8010E947E
:1038E0004D11C8010E946B11C8010E946B11C801E3
:1038F0000E946B11C8010E946B1142E050E0BE01B2
:103900006F5E7F4FC8010E944D118F859889811588
:10391000914009F068C02D853E8532272327322744
:103920002130310509F05FC089899A898115944059
:1039300009F074C044E050E0B301C8012C8B3D8B0A
:103940000E944D112C893D896901F1E0AF1AB1083F
:1039500029F02FEFC216D20609F428CFC801E8D209
:10396000C60165C08EEF9FEF62C02CEF3FEFECCF3A
:103970002DEF3FEFE9CF41E050E0BE01635F7F4FA5
:10398000C8010E944D118D85811113C08D85811153
:10399000F2CFC8010E946B11C8010E946B11C801CF
:1039A0000E946B11C8010E946B11FFEF8F1A9F0AD2
:1039B0006ACF8D859FEF980F9D87882339F3C801C3
:1039C0000E946B11F6CF8B899FEF980F9B8B8823FA
:1039D00009F474CFC8010E946B11F5CFC8010E9491
:1039E0006B111B8A6BCF412C512C89899A8998279E
:1039F000892798274816590638F4C8010E946B1188
:103A00008FEF481A580AF1CFEFEF8E1A9E0A8C14E6
:103A10009D0409F044CF26EF3FEF96CF27EF3FEF0D
:103A200093CF2AEF3FEF90CF2BEF3FEF8DCF6596EF
:103A30000FB6F894DEBF0FBECDBFDF91CF911F91BF
:103A40000F91FF90EF90DF90CF90BF90AF909F903D
:103A50008F907F906F905F904F903F902F90089540
:103A60002F923F924F925F926F927F928F929F928E
:103A7000AF92BF92CF92DF92EF92FF920F931F937C
:103A8000CF93DF93CDB7DEB727970FB6F894DEBF9D
:103A90000FBECDBF8C010E940E3A2FEC37E040E004
:103AA00050E00E941A3ADC01CB010196A11DB11D24
:103AB000F80184839583A683B78380839183A2834F
:103AC000B3835801F3E4AF0EB11CC50131D264E4F5
:103AD00070E0C5016DD2882309F436C10E940A2B1B
:103AE0002B013C01812C912C1D82C8018E5B9F4FC4
:103AF0009F838E8343E0342E58EEC52E53E0D52E9F
:103B0000E12CF12C62E0262EAE81BF818C918330B6
:103B100009F402C181111FC0F80184819581A68139
:103B2000B7810196A11DB11D84839583A683B783B8
:103B30000E940A2B6419750986099709A701960145
:103B40000E94463AA90161E0C80107DC81E0AE812C
:103B5000BF818C93C2C08430F1F4F80184819581D7
:103B6000A681B7810196A11DB11D84839583A6838B
:103B7000B7830E940A2B6419750986099709A70162
:103B800096010E94463AA90163E0C801E6DBAE81D6
:103B9000BF812C92A2C0813051F5F80142AD53ADE6
:103BA00064AD75AD9E012F5F3F4FC80124DA8D8350
:103BB000823009F092C089819A81AB81BC81F80181
:103BC00084839583A683B7830E940A2B64197509A1
:103BD00086099709A70196010E94463AA90163E068
:103BE000C801BBDBED81AE81BF81EC937DC082302B
:103BF00009F073C0D801DA964D915D916D917C9179
:103C0000DD979E012F5F3F4FC801F5D98D83853029
:103C100009F05CC0EE81FF813082F80182A193A19E
:103C2000A4A1B5A1892B8A2B8B2B41F484E893E0C6
:103C3000A0E0B0E082A393A3A4A3B5A3F80186A15A
:103C400097A1A0A5B1A5892B8A2B8B2B61F482A10A
:103C500093A1A4A1B5A1B695A7959795879586A39D
:103C600097A3A0A7B1A7F80182A593A5A4A5B5A580
:103C7000892B8A2B8B2BA9F482A193A1A4A1B5A196
:103C8000AC01BD0123E076956795579547952A9538
:103C9000D1F7841B950BA60BB70B82A793A7A4A7FC
:103CA000B5A7F80186A197A1A0A5B1A586A797A75A
:103CB000A0ABB1AB82A593A5A4A5B5A582AB93ABF0
:103CC000A4ABB5AB88248394912C0EC0FD81F63053
:103CD00021F4AE81BF811C9207C0BD81BF3F21F49A
:103CE000EE81FF8110821D82F1E08F16910409F4AC
:103CF0000BCF0E940A2BDC01CB0184199509A60980
:103D0000B709F80126A937A940AD51AD28173907E1
:103D10004A075B0708F0F8CEC5010AD1F801848193
:103D20009581A681B7810196A11DB11D84839583DC
:103D3000A683B7830E940A2BF801FE9660837183E5
:103D400082839383C40102C080E090E027960FB67F
:103D5000F894DEBF0FBECDBFDF91CF911F910F91C1
:103D6000FF90EF90DF90CF90BF90AF909F908F909B
:103D70007F906F905F904F903F902F9008952C9A76
:103D80000895CF92DF92EF92FF920F931F93CF93FC
:103D9000DF93EC017A018B016C01C40ED51ECC15AA
:103DA000DD05A1F00E94C70C8FE00E94C90C8D2F89
:103DB0000E94C90C8C2F0E94C90C219680E00E94A1
:103DC000C90CF80181938F01DADFE9CFC701DF91D8
:103DD000CF911F910F91FF90EF90DF90CF900895BA
:103DE000CF92DF92EF92FF920F931F93CF93DF93C7
:103DF000EC017A018B016C01C40ED51ECC15DD05DA
:103E000099F00E94C70C80EF0E94C90C8D2F0E9470
:103E1000C90C8C2F0E94C90C2196F80181918F0149
:103E20000E94C90CACDFEACFC701DF91CF911F918F
:103E30000F91FF90EF90DF90CF9008951F93CF9355
:103E4000DF931F921F92CDB7DEB7182F6A83998335
:103E50000E94C70C80EF0E94C90C9981892F0E9493
:103E6000C90C812F0E94C90C6A81862F0E94C90C3F
:103E700086DF81E00F900F90DF91CF911F91089521
:103E8000FC01818D928D0895FC01848995890895A6
:103E900024E533E0FC0131832083FB014089518913
:103EA00062897389FC014283538364837583089517
:103EB000DC01ED91FC91008CF18DE02D1994FC0159
:103EC0009485FB018485981303C081E0943009F444
:103ED00080E0089521E0FC018485843009F420E02D
:103EE000822F08950895CF93DF931F92CDB7DEB749
:103EF0006983DC01ED91FC910280F381E02D41E0CA
:103F000050E0BE016F5F7F4F19950F90DF91CF9109
:103F10000895DC01ED91FC91048CF58DE02D19954F
:103F200091E089270895862F089581E086270895D6
:103F3000CF93DF93EC01888D843061F00E94C70D30
:103F4000E88DF0E0EE0FFF1FEC52F74F1182108268
:103F500084E0888FDF91CF910895FC0184858430BF
:103F600011F00C94130E80E00895CF93DF93FC01C1
:103F700024852430C9F0EC01F0DF843181F08823FE
:103F800071F0883161F08C3161F4E881F98104804D
:103F9000F581E02DCE01199521E0892B19F420E05F
:103FA00001C021E0822F01C080E0DF91CF91089510
:103FB000EF92FF921F93CF93DF93FC01208D24306B
:103FC00011F080E01CC07B01EC0110E0812F0E9409
:103FD000130E811102C0188F05C08831E1F31F5FF5
:103FE0001430A1F7888D843061F3FD86EC861A8E3B
:103FF000198E20E0A70162E00E94D60D81E0DF91DA
:10400000CF911F91FF90EF900895CF92DF92EF92A2
:10401000FF921F93CF93DF93FC0114851430A1F11D
:10402000EC0180E590E00E94400D68E070E0812F97
:104030000E943F140E943F0D0E940A2B6B017C01DD
:10404000CE018BDF8823B1F061E070E080E090E08A
:104050000E94D22A0E940A2BDC01CB018C199D09F7
:10406000AE09BF09883E9340A105B10548F38C8590
:104070000E94C70DEC85F0E0EE0FFF1FEC52F74FEA
:104080001182108284E08C87DF91CF911F91FF9085
:10409000EF90DF90CF9008950F931F93CF93DF930E
:1040A0001F92CDB7DEB78C01DC01ED91FC9104804D
:1040B000F581E02D1995892B51F0BE016F5F7F4F7F
:1040C000F80184850E94430D898190E002C08FEF42
:1040D0009FEF0F90DF91CF911F910F910895FC01F9
:1040E00084850C947C0DCF93DF931F92CDB7DEB700
:1040F00041E050E0BE016F5F7F4FFC0184850E946C
:104100007C0D181619061CF4898190E002C08FEF0F
:104110009FEF0F90DF91CF910895FC01848584304B
:1041200011F00C945F0D80E090E008958F929F92C3
:10413000AF92BF92CF92DF92EF92FF920F931F93B5
:10414000CF93DF936C015B017A01FC01C485C4301D
:1041500041F481E090E0F6019383828380E090E077
:1041600057C08A014130584010F000E018E080E567
:1041700090E00E94400D8C2F0E94B6154C0163E028
:1041800070E08C2F0E94DA0CD82F0E943F0DD7319F
:1041900011F0DC3121F48016910648F302C000E0F2
:1041A00010E080E590E00E94400D9801A50160E0DC
:1041B00070E08C2F0E94511560E270E08C2F0E94FD
:1041C0003F1462E070E08C2F0E94DA0C84FD14C072
:1041D00063E070E08C2F0E94DA0C811106C00E940F
:1041E0003F0D8C2F0E94C70DB4CF0E943F0D80E57C
:1041F00090E00E94400DE5CF40E162E070E08C2F3E
:104200000E94D00C0E943F0D012B09F4A2CFC701E0
:10421000DF91CF911F910F91FF90EF90DF90CF90A2
:10422000BF90AF909F908F900895CF92DF92FF92B2
:104230000F931F93CF93DF93FC012485243009F063
:1042400070C06A01EB018C01F12C8F2D0E94130EBE
:10425000811103C0F801F48607C08B7F8831D1F348
:10426000F394F4E0FF12F1CFF8018485843009F46F
:1042700058C020910602309107022F5F3F4F11F482
:1042800020E030EC309307022093060240910602B2
:104290005091070220E061E00E94D60DF801F484FD
:1042A0008A818F3F51F48B818F3F91F48C818F3FB6
:1042B00079F48D818F3F61F431C0811109C08B8108
:1042C000811106C08C81811103C08D81882331F159
:1042D000C114D10419F180E590E00E94400DBE01A7
:1042E0006E5F7F4F8F2D0E94360DB6018F2D0E947D
:1042F000270D64E070E08F2D0E943F140E943F0D57
:10430000C8012BDE873181F061E070E080E090E051
:104310000E94D22AC80121DE8111F2CF84E0F80187
:10432000848780E090E002C081E090E0DF91CF914F
:104330001F910F91FF90DF90CF900895CF92DF9261
:10434000EF92FF920F931F93CF93DF93CDB7DEB71A
:10435000AF970FB6F894DEBF0FBECDBF7C016A01E8
:1043600004E513E01A8309831C861B8688EE93E01C
:10437000A0E0B0E08D879E87AF87B88B83E492E0A2
:104380009A878987188F0F8B198E1A8E1B8E1C8E19
:1043900084E089A31DA30CA31EA21FA218A619A620
:1043A0008091F1059091F205A091F305B091F4058B
:1043B0008CA79DA7AEA7BFA78B839C83AD83BE832D
:1043C00018861F82AE014C5D5F4FCE010196CFD89B
:1043D00081309105B1F4D701ED91FC910484F5850C
:1043E000E02D1BA70AA78EA19FA1A8A5B9A58CA700
:1043F0009DA7AEA7BFA7A601BE01665D7F4FC701FF
:104400001995AF960FB6F894DEBF0FBECDBFDF9102
:10441000CF911F910F91FF90EF90DF90CF90089573
:1044200044E050E0BC018FE090E0DACC2F923F9264
:104430004F925F926F927F928F929F92AF92BF92B4
:10444000CF92DF92EF92FF920F931F93CF93DF9360
:10445000CDB7DEB7E4970FB6F894DEBF0FBECDBF81
:104460006C017B01942E19821A82DC018C918111DE
:104470006DC180913C08807709F468C1FB0180819F
:104480008F32C9F47F0181918F32E1F3609142084C
:1044900070914308811104C0C6010E94620A5BC189
:1044A000CE0101960E94620A882309F44FC1BE0121
:1044B0006F5F7F4F02C06CE378E05E01B2E3AB0E4A
:1044C000B11CF7012FEFE21AF20A80818032C9F3A2
:1044D000FDA3ECA3DF019D012E1B3F0B8D918823D3
:1044E000D9F08F32C9F08C3509F430C1982F977FFD
:1044F000923209F42BC18A3309F428C1982F9F7B8B
:104500009C3309F423C192EC980F923008F41EC139
:1045100080528F3500F31AC1AF01420F531FCA01F9
:104520007C01DC012D91CD012AAB2032C9F32F3261
:10453000B9F39A012E1B3F0B4E175F0741F0DA01CA
:104540009E91AD019E32A9F3903299F303C080E0B1
:1045500090E006C0C9012F3F310511F00CF0F6C004
:104560009BA38AA3DE01979620E22D93AA15BB0593
:10457000D9F7DF019D012E1B3F0B4D914E32D1F338
:104580004032C1F33CAB2BAB51E0232B09F050E0A0
:104590008C010150110938F09F01200F311FD90102
:1045A0002C912E32B1F76EA027E0722E312C512CB7
:1045B000812C38E0432EABA9BCA9A817B9070CF091
:1045C00080C02BA93CA92E0F3F1FD9014C9140322E
:1045D00009F460C04E3239F42BA93CA90217130725
:1045E00009F058C004C04232A1F04C3791F026EDDA
:1045F000240F263010F44D3261F426EC240F2630BF
:1046000040F025EA240F233020F02FED240F2E3523
:1046100030F0ABA9BCA9A017B10781F43FC02BA90A
:104620003CA920173107D1F1731410F1242F3FE971
:10463000340F3A3140F44052842809C07314C0F05A
:1046400050E04FE52FE521542A3108F45428222464
:104650002394230C27E230E02C0F3D1F230D311D46
:10466000D9014C93B6E0B215B8F0622C322C22C0BE
:104670003AE0731609F46CC0ABA9BCA90A171B0772
:104680000CF466C01CAB0BAB5AE0752EA8E03A2EBA
:10469000B0E14B2E50E00EC0322C0CC02AE0721656
:1046A00009F456C01CAB0BAB2AE0722E38E0332E57
:1046B00040E1442E2BA93CA92F5F3F4F3CAB2BABD5
:1046C0007ACF6EA28FA1803209F440C0552339F011
:1046D000582011F4882D01C082E089A314C081E024
:1046E00089A38EA190E0E7E2F0E0EC0FFD1FE80F58
:1046F000F91F2EE72083E8E2F0E0EC0FFD1FE80F42
:10470000F91F21E32083FAA9FF23C1F021E0AE01C4
:104710004F5D5F4FC6010E94B1068823B9F0F601D4
:10472000DE01119680E201900D928A95E1F7C601B3
:104730000E947C0ABE016F5F7F4FC3CE292DAE0160
:104740004F5D5F4FC6010E94B10605C080E003C007
:104750006EA250E0B7CFE4960FB6F894DEBF0FBE5E
:10476000CDBFDF91CF911F910F91FF90EF90DF9020
:10477000CF90BF90AF909F908F907F906F905F9001
:104780004F903F902F9008959F92AF92BF92CF92FB
:10479000DF92EF92FF920F931F93CF93DF93CDB7EA
:1047A000DEB7C451D1400FB6F894DEBF0FBECDBF07
:1047B0006C0181E08093650819821A821B821C8239
:1047C000FE01359684ECDF011D928A95E9F764E7D6
:1047D00073E0CE0101960E943B36B601CE010196F0
:1047E0000E943B36CB50DF4F1882C55FD040CA5085
:1047F000DF4F1882C65FD04042E0B601CE018B5039
:104800009F4F14DE8E0107531F4F882349F1F80193
:1048100010821182CB50DF4F8881C55FD04083FF6B
:104820001FC0C950DF4F8881C75FD04081FF18C0CB
:10483000CF5EDE4F488159816A817B81C151D14071
:10484000411551056105710509F458C0C550DF4F88
:1048500088819981CB5FD0400E94F00E81114EC0BB
:10486000D8011C961C921C971D961C921D9713969E
:104870001C921E92129788EE93E0A0E0B0E0F8013F
:1048800084839583A683B78388E693E091838083AE
:1048900043E6B601C8010C96C9DDD8011C968C917F
:1048A000882349F10E94D2158823F1F0CE010196A8
:1048B0000E9422150E940C150E94C61486E698E0FC
:1048C00054DB882341F086E698E00DDC682FC801B0
:1048D0000E944F13F3CF86E698E01FDC892B99F7EF
:1048E00086E698E092DB02C010926508C8010C963B
:1048F0000E947C0AC6C010926508C3C0C75FDE4F25
:10490000488159816A817B81C950D140C550DF4FB0
:1049100088819981CB5FD04021E080960E94F5028A
:10492000009709F49DCFC750DF4FE880F980C95F39
:10493000D040FFE0EF22FF2425E0EE0CFF1C2A957B
:10494000E1F7E80EF91EC7010E949F03B82E85EE1D
:10495000D7018C93CB50DF4F1882C55FD040C55034
:10496000DF4F88819981CB5FD04080960E943B0FBA
:10497000882309F475CFC850DF4F8881C85FD040C5
:10498000882309F46DCFC350DF4F88819981AA81B4
:10499000BB81CD5FD0400097A105B10569F4C5503A
:1049A000DF4F68817981CB5FD040C8010E94620AE5
:1049B000882309F455CF16C020E2F80111922A95F8
:1049C000E9F720E1F801208321E02283C550DF4F81
:1049D00028813981CB5FD04037832683848F958FA0
:1049E000A68FB78F9924939495EEA92EC850DF4FC8
:1049F0008881C85FD040891508F432CFE92CF12CAA
:104A0000C750DF4F48815981C95FD0404E195F09B7
:104A100060E070E085E0440F551F661F771F8A95A0
:104A2000D1F7C8010E94B203882309F419CF60E0CE
:104A3000C8010E946806FC01892B09F411CF838507
:104A40008F3009F00DCF2081822F8F7190E0E81612
:104A5000F90609F005CF8585B81202CFA082C550AE
:104A6000DF4FE881F981CB5FD04080A1816080A3D6
:104A700026FF05C0CF0180960E943B0FF1CE939494
:104A8000B5CFCC5EDE4F0FB6F894DEBF0FBECDBF04
:104A9000DF91CF911F910F91FF90EF90DF90CF901A
:104AA000BF90AF909F900895EF92FF920F931F9346
:104AB000CF93DF93CDB7DEB7AC970FB6F894DEBFD8
:104AC0000FBECDBF1D861E861C821B8288EE93E022
:104AD000A0E0B0E08D839E83AF83B88788E693E043
:104AE0009A83898341E06CE573E0CE010D969EDCEC
:104AF0008D858823E9F08CEDE82E88E0F82E87017B
:104B00000C5D1840CE0101960E941D02892B41F0D8
:104B1000CE010D960E943A0BF70181937F01EFCFF2
:104B2000F801E452F74F1082CE010D960E947C0AE4
:104B30008CED98E0AC960FB6F894DEBF0FBECDBFFB
:104B4000DF91CF911F910F91FF90EF9008950F93F8
:104B50001F93CF93DF93CDB7DEB7EC970FB6F894E2
:104B6000DEBF0FBECDBF8C0119821A821B821C8250
:104B7000FE01359688E3DF011D928A95E9F764E727
:104B800073E0CE0101960E943B36B801CE0101963A
:104B90000E943B360E94D215882399F1CE010196DE
:104BA0000E9422150E940C150E94C61486E698E009
:104BB000DCD9811109C086E698E0AFDA892B21F4AF
:104BC00086E698E022DA1DC00E94B114811119C056
:104BD0000091400510914105C8010196909341054F
:104BE0008093400586E698E07EDAF801EF5BFB4FA4
:104BF0008083E0914005F0914105EF5BFB4F10820F
:104C0000D5CF81E494E0EC960FB6F894DEBF0FBEEA
:104C1000CDBFDF91CF911F910F91089590E0FC01DE
:104C2000E45CFC4F2491FC01EA50FD4F8491882301
:104C300099F090E0880F991FFC01E452FD4FA59177
:104C4000B491FC01EE53FD4F859194918FB7F89488
:104C5000EC91E22BEC938FBF08958F929F92AF92CD
:104C6000BF92CF92DF92EF92FF92CF93C82F109214
:104C70001A0681E090E0A0E0B0E080931D069093DA
:104C80001E06A0931F06B093200685E196E0909340
:104C9000370680933606109235068FEF9FEFDC01C2
:104CA0008093380690933906A0933A06B0933B065A
:104CB000CC2331F1C53008F0DCC020E040E050E00A
:104CC000BA0185E396E00E94F502009709F4D1C08D
:104CD00020E1C29F800D911D11244097FC01E254F8
:104CE000FE4F20812F7709F0C4C0389680809180D4
:104CF000A280B38081149104A104B10421F4B9C04D
:104D0000812C912C540120E0B501A40185E396E0AB
:104D10000E94F502FC01892B09F4ABC083859485C0
:104D20008115924009F0A5C08089823009F0A1C0A8
:104D3000468557854115510509F49BC0258520936B
:104D400017068FEF820F8093180680E091E02917F5
:104D500051F031E0380F393019F48093190689C0C9
:104D6000990F832FF4CF80931906C688D788C11472
:104D7000D10419F0E12CF12C04C0C4A0D5A0E6A008
:104D8000F7A0C0922106D0922206E0922306F0926C
:104D90002406D501C401840F951FA11DB11D809368
:104DA000290690932A06A0932B06B0932C062189FE
:104DB000328930931C0620931B06CC0CDD1CEE1CA4
:104DC000FF1CC80ED91EEA1EFB1EC0923106D092EF
:104DD0003206E0923306F092340655E0220F331F7C
:104DE0005A95E1F721503E4F232F33272695C20EC7
:104DF000D31EE11CF11CC0922506D0922606E0923B
:104E00002706F0922806238934892115310521F0DF
:104E1000C901A0E0B0E004C080A191A1A2A1B3A10A
:104E2000B501A4014C195D096E097F09480F591F8E
:104E30006A1F7B1F0090190604C0769567955795E9
:104E400047950A94D2F7DB01CA010196A11DB11D55
:104E500080932D0690932E06A0932F06B0933006D4
:104E6000453F8FE058076105710528F48CE0809379
:104E70001A0680E017C0453F5F4F6105710510F4C9
:104E800080E10DC084A595A5A6A5B7A580933106A0
:104E900090933206A0933306B093340680E2809359
:104EA0001A0681E0CF91FF90EF90DF90CF90BF90F6
:104EB000AF909F908F900895CF93DF93ABD3EB018A
:104EC0000E94890A8F3F41F0A5D36C1B7D0B68358A
:104ED0007240B0F380E001C081E0DF91CF9108958E
:104EE000CF92DF92EF92FF920F931F93CF93DF93B6
:104EF0001F92CDB7DEB76C012FEF3FEFE12CF12C05
:104F000087010F5F1F4F02331105DCF4BE016F5F95
:104F10007F4FC6010E94F8169C01019791F4998178
:104F20009D3071F3F701E452F74F90839A3019F0F6
:104F30007801E6CF8701F801E452F74F1082C801EB
:104F400004C037FFF7CF8FEF9FEF0F90DF91CF9126
:104F50001F910F91FF90EF90DF90CF9008952F92C7
:104F60003F924F925F926F927F928F929F92AF92F9
:104F7000BF92CF92DF92EF92FF920F931F93CF9346
:104F8000DF93CDB7DEB7C054D1090FB6F894DEBFBA
:104F90000FBECDBF2BAF3CAF4DAF5EAF6FAF219615
:104FA0007FAF2197ABACBCAC2DAC3EAC21964EACE8
:104FB0005FAC21971D861E861C821B8248EE53E043
:104FC00060E070E04D835E836F83788728E633E08E
:104FD0003A83298341E0BC01CE010D9627DA8D8505
:104FE000811102C080E047C03E01BDE26B0E711C22
:104FF0008E01015D1F4F7E0161E3E60EF11C6E0123
:1050000073E3C70ED11C8CED882E88E0982ECE015C
:105010000D9666DF892B31F37F926F921F930F936A
:10502000FF92EF92DF92CF92A3EBB3E0BF93AF93E7
:105030009F928F920E94703649A95AA92DA53EA52C
:105040008FA598A90FB6F894DEBF0FBECDBF6BA990
:105050007CA96A157B0534F0421553051CF0141425
:105060001504ACF6A816B9062CF02216330614F077
:1050700057FECDCF81E0C05CDF4F0FB6F894DEBFA6
:105080000FBECDBFDF91CF911F910F91FF90EF9099
:10509000DF90CF90BF90AF909F908F907F906F9058
:1050A0005F904F903F902F9008953FB7F894809174
:1050B000130990911409A0911509B091160926B50C
:1050C000A89B05C02F3F19F00196A11DB11D3FBF40
:1050D000BA2FA92F982F8827820F911DA11DB11DCE
:1050E000BC01CD0142E0660F771F881F991F4A95CA
:1050F000D1F708956F927F928F929F92AF92BF9255
:10510000CF92DF92EF92FF920F931F93CF93DF9393
:10511000CDB7DEB7EE970FB6F894DEBF0FBECDBFAA
:1051200029AF3AAF4BAF5CAF6DAF7EAF1D861E8629
:105130001C821B8248EE53E060E070E04D835E838A
:105140006F83788728E633E03A83298341E0BC0106
:10515000CE010D966BD98D85882309F43EC04E0192
:105160006DE2860E911C8E01015D1F4F7E0171E381
:10517000E70EF11C8FEBC82E83E0D82E9CEDA92EF4
:1051800098E0B92ECE010D96ABDE892B49F19F92A6
:105190008F921F930F93FF92EF92DF92CF92BF9265
:1051A000AF920E9470364FA558A92BAD3CAD8DAD86
:1051B0009EAD0FB6F894DEBF0FBECDBFE9A9FAA928
:1051C00069AD7AAD6E177F075CF02417350744F0A0
:1051D00097FD06C07DA46EA4D5CF8FEF9FEF02C0D0
:1051E000872D962DEE960FB6F894DEBF0FBECDBF7D
:1051F000DF91CF911F910F91FF90EF90DF90CF90B3
:10520000BF90AF909F908F907F906F900895CF92B6
:10521000DF92EF92FF92CF93DF936C01990FEE082C
:10522000FF08F7FE16C06DE282E595E00E944F137D
:10523000EC0144275527BA014C195D096E097F0915
:105240002AE082E595E00E94F2127C01EC0EFD1E40
:1052500008C02AE0B701A60182E595E00E94F2129B
:105260007C0169EA73E082E595E00E948A038E0D75
:105270009F1DDF91CF91FF90EF90DF90CF90089529
:10528000CF92DF92EF92FF920F931F93CF93DF9312
:105290006B01770FEE08FF08F7FE1BC0EC016DE213
:1052A0000E944F138C0144275527BA014C195D0900
:1052B0006E097F092AE0CE010E94F212800F911F31
:1052C000DF91CF911F910F91FF90EF90DF90CF90E2
:1052D00008952AE0B701A601DF91CF911F910F91A8
:1052E000FF90EF90DF90CF900C94F2124F925F926C
:1052F0006F927F928F929F92AF92BF92CF92DF92E6
:10530000EF92FF926B017C01B42E9B01AC010E94D5
:105310001D36882319F068EC73E027C02601370199
:10532000E89477F82FEF3FEF4FE75FE7C301B20153
:105330000E941D3681110DC02FEF3FEF4FE75FE751
:10534000C301B2010E946C3418161CF46CEC73E0BB
:105350000CC02FEF3FEF4FE75FE4C701B6010E949B
:10536000B635181694F460ED73E086E698E0FF9089
:10537000EF90DF90CF90BF90AF909F908F907F90F5
:105380006F905F904F900C948A032FEF3FEF4FE7A1
:105390005FECC701B6010E946C3487FDE4CF20E0CA
:1053A00030E0A901C701B6010E946C3487FF0BC031
:1053B0006DE286E698E00E944F134C01F7FAF094F4
:1053C000F7F8F09402C0812C912CA12C60E070E0E1
:1053D00080E09FE3AB1441F020E030E040E251E494
:1053E0000E947034A394F6CF9B01AC01C701B601B3
:1053F0000E9408342B013C010E94D8346B017C01CF
:105400000E9404359B01AC01C301B2010E94073424
:105410002B013C012AE0B701A60186E698E00E9434
:10542000F2127C01E80CF91CBB2041F064ED73E042
:1054300086E698E00E948A03E80EF91EDB2CDD2048
:1054400031F120E030E040E251E4C301B2010E94BA
:10545000BA352B013C010E94D8344B01A12CB12C50
:105460002AE0B501A40186E698E00E94F212E80E57
:10547000F91EC501B4010E9404359B01AC01C301B2
:10548000B2010E9407342B013C01DA94D8CFC70146
:10549000FF90EF90DF90CF90BF90AF909F908F9054
:1054A0007F906F905F904F900895362F90E0FC01B1
:1054B000EE57FC4F4491FC01E45CFC4F2491FC014D
:1054C000EA50FD4F9491992309F46BC0442309F4E9
:1054D00055C050E0FA013197E231F10508F04EC0B5
:1054E0008827EE58FF4F8F4F0C94F2338091800045
:1054F0008F7707C0809180008F7D03C080918000EE
:10550000877F809380003AC084B58F7702C084B5CE
:105510008F7D84BD33C08091B0008F7703C08091B0
:10552000B0008F7D8093B00029C0809190008F776C
:1055300007C0809190008F7D03C080919000877F8D
:10554000809390001BC08091A0008F7707C080914E
:10555000A0008F7D03C08091A000877F8093A00072
:105560000DC0809120018F7707C0809120018F7D31
:1055700003C080912001877F80932001E92FF0E014
:10558000EE0FFF1FEE53FD4FA591B4918FB7F89426
:10559000EC91311103C020952E2301C02E2B2C93AA
:1055A0008FBF08958F929F92AF92BF92CF92DF925A
:1055B000EF92FF926B017C0178DD4B015C01C1141D
:1055C000D104E104F104E9F070DDDC01CB018819BC
:1055D0009909AA09BB09883E9340A105B10578F352
:1055E00021E0C21AD108E108F10888EE880E83E0B4
:1055F000981EA11CB11CC114D104E104F10421F7CF
:10560000DECFFF90EF90DF90CF90BF90AF909F9054
:105610008F9008952FB7F89460910F097091100939
:1056200080911109909112092FBF0895EF92FF9276
:105630000F931F93CF93DF93EC017B01EBDF8B0183
:105640000E94890A8E838F3F41F4E4DF601B710B57
:105650006D327140A8F381E103C08E3F39F08FE0D5
:105660008C83CE010E94B90A80E01BC08FEF8EBDF3
:10567000F701D701A150BE4F9FEF0DB407FEFDCF3C
:105680008EB59EBD8193EA17FB07B9F70DB407FEEF
:10569000FDCF8EB58C931E820E94890A0E94890AD2
:1056A00081E0DF91CF911F910F91FF90EF900895CE
:1056B0001F920F920FB60F9211242F933F938F9347
:1056C0009F93AF93BF9380910F0990911009A09180
:1056D0001109B091120930910E0923E0230F2D37E3
:1056E00020F40196A11DB11D05C026E8230F0296E6
:1056F000A11DB11D20930E0980930F0990931009ED
:10570000A0931109B0931209809113099091140983
:10571000A0911509B09116090196A11DB11D8093A4
:10572000130990931409A0931509B0931609BF911A
:10573000AF919F918F913F912F910F900FBE0F903E
:105740001F901895CF93DF93CDB7DEB7AE970FB606
:10575000F894DEBF0FBECDBF789484B5826084BD5F
:1057600084B5816084BD85B5826085BD85B5816065
:1057700085BD80916E00816080936E0010928100E3
:10578000809181008260809381008091810081609E
:10579000809381008091800081608093800080915F
:1057A000B10084608093B1008091B00081608093EB
:1057B000B00080919100826080939100809191006F
:1057C000816080939100809190008160809390002F
:1057D0008091A10082608093A1008091A1008160EE
:1057E0008093A1008091A00081608093A0008091AF
:1057F0002101826080932101809121018160809349
:1058000021018091200181608093200180917A00A4
:10581000846080937A0080917A00826080937A001D
:1058200080917A00816080937A0080917A0080680C
:1058300080937A001092C100E0916205F0916305B7
:1058400082E08083E0915E05F0915F051082E09137
:105850006005F09161058FEC808310926A05E091FC
:105860006605F091670586E08083E0916405F0911C
:105870006505808180618083E0916405F091650514
:10588000808188608083E0916405F0916505808166
:1058900080688083E0916405F091650580818F7D4B
:1058A0008083109263081092600884E698E09093D9
:1058B0005D0880935C0884E080935F08ABDE8B0119
:1058C000F0905F0861E085E3F0DD85E3A7D983E32D
:1058D000A5D984E3A3D98F2DA1D961E08F2DE5DD72
:1058E00080E4809361088CE598E00E94900A8CE542
:1058F00098E00E94B90A3AE0F32E8FEF0E94840AE2
:10590000FA94F110FACF20E030E0A90160E08CE5D4
:1059100098E00E94FB0A813041F07CDE601B710B35
:10592000613D774080F381E058C02AEA31E040E0F1
:1059300050E068E08CE598E00E94FB0A853011F4A5
:1059400081E00CC024E0F22E0E94890A8093620854
:10595000FA94F110F9CF8A3A59F482E080936308FF
:1059600080916308823061F0C12CD12C76010DC08A
:1059700051DE601B710B613D7740B8F282E02DC0B3
:10598000C12CD12CE12C90E4F92E20E030E0A901CB
:1059900067E38CE598E00E94FB0AA701960169E2A3
:1059A0008CE598E00E94FB0A882341F033DE601BFF
:1059B000710B613D774048F38AE00FC08091630826
:1059C000823001F520E030E0A9016AE38CE598E03F
:1059D0000E94FB0A882341F088E0809360088CE5F0
:1059E00098E00E94B90A36C00E94890A807C803CF7
:1059F00019F483E0809363080E94890A0E94890A4F
:105A00000E94890A8CE598E00E94B90A84E080939C
:105A100061088CE398E00E947C0A81E01ED988230B
:105A200049F065E176E08CE398E00E94620A882301
:105A300089F005C080E011D98111F3CF0BC08091AE
:105A40003C08807739F08CE398E090933E04809393
:105A50003D0406C068E071E082E595E00E94BD1358
:105A600068EE73E080E090E09DDD80913504811167
:105A70002AC010921D0410921C0488EE93E0A0E04E
:105A8000B0E080931E0490931F04A0932004B09371
:105A9000210483E492E090931B0480931A0484E52C
:105AA00093E0909329048093280410922A04109282
:105AB0002B0410922C0410922D0484E08093320465
:105AC00081E08093350487ED93E09093F605809311
:105AD000F5056CE271E080E090E064DD1FB7F894BA
