:100000000C94A4000C94CC000C94CC000C94CC0068
:100010000C94CC000C94CC000C94CC000C94CC0030
:100020000C94CC000C94CC000C94CC000C94CC0020
:100030000C94CC000C94CC000C94CC000C94CC0010
:100040000C94AF110C94CC000C9453050C942D051A
:100050000C94CC000C94CC000C94CC000C94CC00F0
:100060000C94CC000C94CC00496E697469616C6985
:100070007A696E672E2E00496E697469616C697ABF
:10008000696E6720446174614163636573732E2EEA
:1000900000436F6E6E656374696F6E3A20636C6FB8
:1000A000736500486F73743A200020485454502FF1
:1000B000312E310047455420004973526573706FEB
:1000C0006E7365456D70747921200048545450203A
:1000D0004572726F720061637469766174696E67EC
:1000E000206368616E6E656C3A00000000080002D3
:1000F00001000003040700000000000000000000F1
:100100000000250028002B0000000000240027002C
:100110002A00040404040404040402020202020289
:1001200003030303030301020408102040800102BB
:10013000040810200102040810206364696E6F70C7
:10014000737578585B00B91811241FBECFEFD8E043
:10015000DEBFCDBF26E0AAE4B2E001C01D92AF34FD
:10016000B207E1F712E0A0E0B1E0EEE7FBE302C086
:1001700005900D92AA34B107D9F710E0C4EAD0E097
:1001800004C02197FE010E944E19C33AD107C9F756
:100190000E94A8130C94BD1D0C9400000E945419D9
:1001A000CF92DF92EF92FF920F931F93CF93DF9343
:1001B0006C017A018B01C0E0D0E0CE15DF0589F03B
:1001C000D8016D918D01D601ED91FC910190F081E6
:1001D000E02DC6010995892B11F47E0102C02196FC
:1001E000ECCFC701DF91CF911F910F91FF90EF905E
:1001F000DF90CF900895FC01918D828D981761F06A
:10020000828DDF01A80FB11D5D968C91928D9F5F4D
:100210009F73928F90E008958FEF9FEF0895FC01F8
:10022000918D828D981731F0828DE80FF11D858DAB
:1002300090E008958FEF9FEF0895FC01918D228D3E
:10024000892F90E0805C9F4F821B91098F739927C3
:1002500008958DE595E00E941D0121E0892B09F4A8
:1002600020E0822F0895FC01848DDF01A80FB11DCD
:10027000A35ABF4F2C91848D90E001968F739927DC
:10028000848FA689B7892C93A089B1898C918064C9
:100290008C93938D848D981306C00288F389E02D8A
:1002A00080818F7D80830895EF92FF920F931F933B
:1002B000CF93DF93EC0181E0888F9B8D8C8D981319
:1002C00005C0E889F989808185FD24C0F62E0B8D53
:1002D00010E00F5F1F4F0F731127E02E8C8DE81277
:1002E0000CC00FB607FCFACFE889F989808185FF39
:1002F000F5CFCE010E943301F1CF8B8DFE01E80FC7
:10030000F11DE35AFF4FF0820B8FEA89FB89808150
:10031000806207C0EE89FF896083E889F98980815E
:100320008064808381E090E0DF91CF911F910F91F5
:10033000FF90EF900895CF93DF93EC01888D882391
:10034000C9F0EA89FB89808185FD05C0A889B98942
:100350008C9186FD0FC00FB607FCF5CF808185FF1D
:10036000F2CFA889B9898C9185FFEDCFCE010E948B
:100370003301E7CFDF91CF91089580E090E0892BA2
:1003800029F00E94290181110C940000089508951C
:10039000CF93DF931F92CDB7DEB76983DC01ED9178
:1003A000FC910280F381E02D41E050E0BE016F5FDF
:1003B0007F4F09950F90DF91CF910895FC01818DBA
:1003C000928D0895BF92CF92DF92EF92FF920F939A
:1003D0001F93CF93DF9300D000D000D0CDB7DEB70E
:1003E000FC01208D243009F04CC06A017B018C0196
:1003F000B12C63E070E08B2D0E94B207811103C025
:10040000F801B08E06C08831D9F3B394F4E0BF127E
:10041000F0CFF801808D8430A1F196E0E8ECF1E0B6
:10042000DE01119601900D929A95E1F7F701938103
:100430009F779C8394819D8395819E83B7016E5F96
:100440007F4F0E941908B601F801808D0E940808AC
:10045000F801808D90E0982F882746E050E0BE019B
:100460006F5F7F4F8A5F9B4F0E945707F801128E84
:10047000118E20E8A60162E0808D0E94C60881E00E
:1004800001C080E026960FB6F894DEBF0FBECDBF48
:10049000DF91CF911F910F91FF90EF90DF90CF9060
:1004A000BF900895CF93DF931F92CDB7DEB7FC01C5
:1004B000218D328D232B49F0BE016F5F7F4F808DE0
:1004C0000E942608898190E002C08FEF9FEF0F9075
:1004D000DF91CF910895CF93DF93FC01218D328D71
:1004E0002115310519F48FEF9FEF11C0EC01421770
:1004F000530708F0A901888D0E9463081816190691
:1005000094F7298D3A8D281B390B3A8F298FDF916B
:10051000CF9108950F931F93CF93DF931F92CDB781
:10052000DEB7FC01218D328D232B61F08C0141E07F
:1005300050E0BE016F5F7F4F808D0E9463081816E8
:1005400019061CF08FEF9FEF08C0F801818D928D86
:100550000197928F818F898190E00F90DF91CF91E9
:100560001F910F9108950F931F93CF93DF93CDB7F2
:10057000DEB728970FB6F894DEBF0FBECDBF8C0153
:10058000F801818D928D892B49F0D801ED91FC9174
:100590000680F781E02DC8010995F2CF808D0E9479
:1005A0004308181619065CF548E050E0BE016F5F7D
:1005B0007F4FD80158968C910E9463089C011816B1
:1005C0001906DCF489819A81AB81BC81F801808BAA
:1005D000918BA28BB38B8D8190E0982F88272E81F1
:1005E000820F911D958B848B2F8130E0322F222733
:1005F0008885280F311D328F218FC90102C080E00C
:1006000090E028960FB6F894DEBF0FBECDBFDF9105
:10061000CF911F910F910895AF92BF92CF92DF9229
:10062000FF920F931F93CF93DF938C015B01EA013D
:10063000FC01C688D788F08C80E590E00E942308F2
:100640008F2D0E9401118C179D0720F48F2D0E9481
:100650000111EC019E01A501B6018F2D0E949C1095
:100660000E942208F801868997898C0F9D1F978B1D
:10067000868BCE01DF91CF911F910F91FF90DF907C
:10068000CF90BF90AF900895FF920F931F93CF9399
:10069000DF93FB01DC0157961C921E9256975896E9
:1006A000FC908281811109C08381811106C08481FF
:1006B000811103C085818823C1F041155105A9F03E
:1006C0008A01EF0180E590E00E942308BE016E5F81
:1006D0007F4F8F2D0E941908B8018F2D0E940808A6
:1006E0000E94220881E090E002C080E090E0DF916B
:1006F000CF911F910F91FF900895CF93FC01C08D72
:1007000080E590E00E94230860E270E08C2F0E9458
:10071000241062E070E08C2F0E94B20784FD19C0A3
:1007200062E070E08C2F0E94B20783FF0BC048E1AB
:1007300062E070E08C2F0E94A8070E94220880E0EF
:1007400090E011C00E94220880E590E00E942308FA
:10075000E0CF40E162E070E08C2F0E94A8070E9489
:10076000220881E090E0CF910895CF92DF92EF923E
:10077000FF920F931F93CF93DF93CDB7DEB7AF9761
:100780000FB6F894DEBF0FBECDBF7C016A010EE14B
:1007900012E01A8309831C861B8688EE93E0A0E092
:1007A000B0E08D879E87AF87B88B86E391E09A870C
:1007B0008987188F0F8B198E1A8E1B8E1C8E84E0E2
:1007C00089A31DA30CA31EA21FA218A619A680917F
:1007D000FC059091FD05A091FE05B091FF058CA749
:1007E0009DA7AEA7BFA78B839C83AD83BE831886CE
:1007F0001F82AE014C5D5F4FCE0101960E941E0A22
:1008000081309105B1F4D701ED91FC910088F18917
:10081000E02D1BA70AA78EA19FA1A8A5B9A58CA70B
:100820009DA7AEA7BFA7A601BE01665D7F4FC7010A
:100830000995AF960FB6F894DEBF0FBECDBFDF911E
:10084000CF911F910F91FF90EF90DF90CF9008957F
:10085000CF93DF93EC01888D843061F00E94B4085F
:10086000E88DF0E0EE0FFF1FED5BFA4F1182108272
:1008700084E0888FDF91CF910895EF92FF920F93DC
:100880001F93CF93DF938C017B01C0E0D0E0F70191
:10089000EC0FFD1F6491662361F0D801ED91FC918E
:1008A0000190F081E02DC8010995892B11F0219666
:1008B000EECFCE01DF91CF911F910F91FF90EF907E
:1008C00008956115710579F0FB0101900020E9F7A9
:1008D0003197AF01461B570BDC01ED91FC91028073
:1008E000F381E02D099480E090E008954F925F92AB
:1008F0006F927F92EF92FF920F931F93CF93DF93AC
:10090000CDB7DEB7A1970FB6F894DEBF0FBECDBF4F
:100910007C01FA01CB0119A2223008F42AE08E01F1
:100920000F5D1F4F422E512C612C712CBF01A30172
:1009300092010E94551DF901CA01015011096A3046
:1009400014F4605D01C0695CD8016C93232B242BE7
:10095000252B61F7B801C7010E946104A1960FB66B
:10096000F894DEBF0FBECDBFDF91CF911F910F91E5
:10097000FF90EF907F906F905F904F9008958F92CF
:100980009F92AF92BF92CF92DF92EF92FF920F931E
:100990001F93CF93DF937C01EB016C0182E0C80EC3
:1009A000D11C4701E5E08E0E911C00E010E0F6013D
:1009B00041916F0150E060E070E02AE0CE010E94BA
:1009C00076045C01E881F9810190F081E02D6EE20E
:1009D000CE0109958A0D9B1D080F191FC814D90453
:1009E00031F7F701458150E060E070E02AE0CE0188
:1009F0000E947604800F911FDF91CF911F910F917C
:100A0000FF90EF90DF90CF90BF90AF909F908F902E
:100A100008950F931F93CF93DF93EC010E943D0441
:100A20008C0166E272E0CE010E946104800F911F8A
:100A3000DF91CF911F910F9108952EE132E0FC01DB
:100A400031832083FB014081518162817381FC01EC
:100A5000428353836483758308951F920F920FB668
:100A60000F9211242F933F934F935F936F937F9334
:100A70008F939F93AF93BF93EF93FF938DE595E093
:100A80000E943301FF91EF91BF91AF919F918F91A0
:100A90007F916F915F914F913F912F910F900FBE7A
:100AA0000F901F9018951F920F920FB60F9211245E
:100AB0002F938F939F93EF93FF93E0916D05F091A8
:100AC0006E058081E0917305F091740582FD12C07E
:100AD0009081809176058F5F8F73209177058217C3
:100AE00051F0E0917605F0E0E35AFA4F958F80934C
:100AF000760501C08081FF91EF919F918F912F9199
:100B00000F900FBE0F901F9018952A9A08952A985B
:100B100008958EBD00000DB407FEFDCF8EB508957B
:100B20002F923F924F925F926F927F928F929F92FD
:100B3000AF92BF92CF92DF92EF92FF920F931F93EB
:100B4000CF93DF93CDB7DEB727970FB6F894DEBF0C
:100B50000FBECDBF8C010E94151D2FEC37E040E089
:100B600050E00E94231DDC01CB010196A11DB11DA7
:100B7000F80184839583A683B78380839183A283BE
:100B8000B3835801F3E4AF0EB11CC5010E942804E1
:100B900064E470E0C5010E943E12882309F43CC160
:100BA0000E94A3112B013C01812C912C1D82C801B4
:100BB0008E5B9F4F9F838E8343E0342E58EEC52E6D
:100BC00053E0D52EE12CF12C62E0262EAE81BF81C0
:100BD0008C91833009F407C1811120C0F801848110
:100BE0009581A681B7810196A11DB11D848395834E
:100BF000A683B7830E94A311641975098609970912
:100C0000A70196010E94551DA90161E0C8010E943B
:100C1000D20E81E0AE81BF818C93C6C08430F9F4DE
:100C2000F80184819581A681B7810196A11DB11D2E
:100C300084839583A683B7830E94A31164197509E1
:100C400086099709A70196010E94551DA90163E035
:100C5000C8010E94D20EAE81BF812C92A5C0813006
:100C600061F5F80142AD53AD64AD75AD9E012F5FE6
:100C70003F4FC8010E940C0D8D83823009F094C053
:100C800089819A81AB81BC81F80184839583A68395
:100C9000B7830E94A3116419750986099709A701F2
:100CA00096010E94551DA90163E0C8010E94D20E61
:100CB000ED81AE81BF81EC937EC0823009F074C0BB
:100CC000D801DA964D915D916D917C91DD979E01F1
:100CD0002F5F3F4FC8010E940C0D8D83853009F0B6
:100CE0005CC0EE81FF813082F80182A193A1A4A1B2
:100CF000B5A1892B8A2B8B2B41F484E893E0A0E0EB
:100D0000B0E082A393A3A4A3B5A3F80186A197A101
:100D1000A0A5B1A5892B8A2B8B2B61F482A193A16D
:100D2000A4A1B5A1B695A7959795879586A397A3F6
:100D3000A0A7B1A7F80182A593A5A4A5B5A5892B65
:100D40008A2B8B2BA9F482A193A1A4A1B5A1AC01FC
:100D5000BD0123E076956795579547952A95D1F77C
:100D6000841B950BA60BB70B82A793A7A4A7B5A7C7
:100D7000F80186A197A1A0A5B1A586A797A7A0ABCA
:100D8000B1AB82A593A5A4A5B5A582AB93ABA4AB4B
:100D9000B5AB88248394912C0EC0FD81F63021F4EC
:100DA000AE81BF811C9207C0BD81BF3F21F4EE819F
:100DB000FF8110821D82F1E08F16910409F406CFA5
:100DC0000E94A311DC01CB0184199509A609B7097A
:100DD000F80126A937A940AD51AD281739074A07B0
:100DE0005B0708F0F3CEC5010E942804F801848156
:100DF0009581A681B7810196A11DB11D848395833C
:100E0000A683B7830E94A311F801FE9660837183C5
:100E100082839383C40102C080E090E027960FB6DE
:100E2000F894DEBF0FBECDBFDF91CF911F910F9120
:100E3000FF90EF90DF90CF90BF90AF909F908F90FA
:100E40007F906F905F904F903F902F900895CF923A
:100E5000DF92EF92FF920F931F93CF93DF93EC01FA
:100E60007A018B016C01C40ED51ECC15DD05A9F0ED
:100E70000E9487058FE00E9489058D2F0E948905B9
:100E80008C2F0E948905219680E00E948905F80137
:100E900081938F010E948505E8CFC701DF91CF9133
:100EA0001F910F91FF90EF90DF90CF900895CF9218
:100EB000DF92EF92FF920F931F93CF93DF93EC019A
:100EC0007A018B016C01C40ED51ECC15DD05A1F095
:100ED0000E94870580EF0E9489058D2F0E94890559
:100EE0008C2F0E9489052196F80181918F010E9423
:100EF00089050E948505E9CFC701DF91CF911F9138
:100F00000F91FF90EF90DF90CF9008951F93CF93B4
:100F1000DF9300D0CDB7DEB7182F6A8399830E9484
:100F2000870580EF0E9489059981892F0E94890594
:100F3000812F0E9489056A81862F0E9489050E945F
:100F4000850581E00F900F90DF91CF911F9108955B
:100F50009B0190E00496982F8827642F820F931F9F
:100F60000C9486070F931F93CF93DF931F92CDB7F7
:100F7000DEB790E00496982F88278C01060F171F84
:100F80000E9487058FE00E948905812F0E948905B4
:100F9000802F0E94890580E00E94890589830E9434
:100FA000850589810F90DF91CF911F910F91089551
:100FB0001F93CF93DF93182F66E270E00E94B20771
:100FC000C82FD0E067E270E0812F0E94B207DC2FCB
:100FD000CC279E01282BC901DF91CF911F91089545
:100FE0001F93CF93DF93182F60E270E00E94B20747
:100FF000C82FD0E061E270E0812F0E94B207DC2FA1
:10100000CC279E01282BC901DF91CF911F91089514
:10101000CF93DF93C82FD62F472F60E170E00E9457
:10102000A8074D2F61E170E08C2FDF91CF910C94D8
:10103000A80790E0982F882744E050E0845F9B4FFA
:101040000C94570708958CBD9DBD08951F93CF93B1
:10105000DF9300D0CDB7DEB7182F80E590E069832D
:101060007A830E94230821E041E050E069817A817F
:10107000812F0E94341081E090E00F900F90DF915B
:10108000CF911F910895FF920F931F93CF93DF93FA
:10109000F82E80E590E00E942308C0E0D0E08F2D7C
:1010A0000E94D8078C01892B21F08F2D0E94D80730
:1010B000EC01C017D10799F7CE01DF91CF911F91B5
:1010C0000F91FF900895AF92BF92CF92DF92EF926F
:1010D000FF921F93CF93DF93182F5B017A0180E576
:1010E00090E00E942308C0E0D0E0812F0E94D80742
:1010F0006C01892B21F0812F0E94D807EC01CC15BF
:10110000DD0599F7209799F463E070E0812F0E9444
:10111000B2078431F1F08823E1F0C1E0D0E08C31F6
:1011200011F4C0E0D0E0D195C195D10912C0EC1600
:10113000FD060CF4E7011C161D065CF420E0AE0170
:10114000B501812F0E94341060E470E0812F0E946D
:101150002410CE01DF91CF911F91FF90EF90DF908F
:10116000CF90BF90AF900895CF93C82F80E590E0C7
:101170000E94230860E170E08C2F0E9424104FEF42
:1011800062E070E08C2FCF910C94A807FF920F9330
:101190001F93CF93DF9300D0CDB7DEB7F82E8A012F
:1011A0002A8369830E94B40880E590E00E942308A6
:1011B0002A816981462F422B60E070E08F2D0E94CA
:1011C000A8070115110551F400914B0510914C052C
:1011D0000F5F1F4F10934C0500934B05412F64E0A8
:1011E00070E08F2D0E94A807402F65E070E08F2DE2
:1011F0000E94A80761E070E08F2D0E94241081E01A
:101200000F900F90DF91CF911F910F91FF90089554
:10121000CF93C82F80E590E00E94230863E070E040
:101220008C2FCF910C94B207CF92DF92EF92FF9266
:10123000CF93DF93EC0166ED70E08DE595E00E94C1
:101240003D046E010D2E000CEE08FF08F7FE14C0E1
:10125000E0915D05F0915E050190F081E02D6DE279
:101260008DE595E0099544275527BA014C195D098C
:101270006E097F092AE003C02AE0B701A6018DE5C7
:1012800095E00E94760466E272E08DE595E00E94AA
:101290006104CC0FDD1FC85ADE4FC88161E08C2F7E
:1012A0000E941D1160E971E080E090E00E946911E8
:1012B00060E08C2F0E941D116AE070E080E090E0F9
:1012C000DF91CF91FF90EF90DF90CF900C94691158
:1012D000DC01ED91FC91048CF58DE02D099591E0F8
:1012E00089270895862F089581E08627089580E351
:1012F000FB0180833296842F82958F7090E1899FC5
:10130000401911244A3014F4405D01C0495C4293F5
:10131000482F8111F0CF0895CF92DF92FF920F9363
:101320001F93CF93DF93FC012485243009F072C012
:101330006A01EB018C01F12C8F2D0E9408098111AB
:1013400003C0F801F48607C08B7F8831D1F3F39492
:10135000F4E0FF12F1CFF8018485843009F45AC01B
:1013600020910601309107012F5F3F4F11F420E0DB
:1013700030EC309307012093060140910601509113
:10138000070120E061E00E94C608F801F4848A8128
:101390008F3F51F48B818F3F91F48C818F3F79F493
:1013A0008D818F3F61F433C0811109C08B81811120
:1013B00006C08C81811103C08D81882341F1C11445
:1013C000D10429F180E590E00E942308BE016E5F00
:1013D0007F4F8F2D0E941908B6018F2D0E9408089B
:1013E00064E070E08F2D0E9424100E942208C80142
:1013F0000E943413873189F061E070E080E090E072
:101400000E946911C8010E9434138111F0CF84E059
:10141000F801848780E090E002C081E090E0DF91F5
:10142000CF911F910F91FF90DF90CF90089544E0EE
:1014300050E0BC018FE090E00C9457072F923F9250
:101440004F925F926F927F928F929F92AF92BF92D4
:10145000CF92DF92EF92FF920F931F93CF93DF9380
:10146000CDB7DEB765970FB6F894DEBF0FBECDBF20
:101470007C016B013A01FB0120E080E090E06AE032
:101480003191332309F140ED430F4A3080F4689FD6
:10149000A001699F500D1124CA01C097830F911DAF
:1014A00037FD9A958F3F910559F350F313C03E32A3
:1014B00089F4233079F0D301A20FB11D12968C93D9
:1014C0002F5F80E090E0DCCF233021F4F3018583AF
:1014D00081E021C0F701428153816481758180914F
:1014E000040690910506A0910606B09107064817DC
:1014F00059076A077B0709F49EC10E94A31187015F
:10150000085F1F4F6F7077277C5FC8010E943E12F3
:10151000813019F080E090E0F3C18EE192E09A838F
:101520008983F70182819381A481B5818B839C8318
:10153000AD83BE8345E350E0BE016F5F7F4FC801BE
:101540000E944403892B19F4C12CD12C6FC10E9435
:10155000A311F701778366837627672776277A8337
:10156000698342E050E0BE016F5F7F4FC8010E9477
:101570000C0381E090E09E878D8742E050E0BE0141
:10158000635F7F4FC8010E940C0380E091E09E875B
:101590008D8742E050E0BE01635F7F4FC8010E942B
:1015A0000C031E861D8642E050E0BE01635F7F4F44
:1015B000C8010E940C0342E050E0BE01635F7F4F10
:1015C000C8010E940C0342E050E0BE01635F7F4F00
:1015D000C8010E940C035601F5018081882311F196
:1015E000F6015F018191811115C045018C189D089C
:1015F0001814190494F48F8641E050E0BE01615F35
:101600007F4FC8010E940C03A401B601C8010E94CB
:101610000C0303C08E3229F7E8CF6501FFEFCF1A24
:10162000DF0ADACF1F8641E050E0BE01615F7F4FE5
:10163000C8010E940C03C12CDD24D394DE86CD8624
:1016400042E050E0BE01635F7F4FC8010E940C037F
:10165000DE86CD8642E050E0BE01635F7F4FC80169
:101660000E940C03C8010E947D03892B09F46CCFF2
:1016700063E0A62EB12CF2E06F0E711C0E94A31144
:101680001B012C01C8010E94B30218161906A4F010
:101690000E94A311DC01CB0182199309A409B509A9
:1016A00089389341A105B105D0F462E370E080E090
:1016B00090E00E946911E6CFF70142815381648175
:1016C0007581808D918DA28DB38D481759076A075A
:1016D0007B0741F4848D958DC59721F406C02FEFCB
:1016E0003FEF9AC02EEF3FEF97C0F70181A192A183
:1016F0000C970CF4A6C04CE050E0BE016F5F7F4F2A
:10170000C8010E946B028B8190E0982F88272C8162
:10171000822B9A8B898B298130E0322F22274A81B4
:10172000242BF701468157814217530709F086C0E1
:1017300097FF84C08F709270892B09F0DEC0CF8034
:10174000D12CDC2CCC248885C82AC114D10409F4FE
:10175000D1C0812C912C8D8190E0982F88272E81EB
:10176000822B8816990608F46FC0812C912C41E0D9
:1017700050E0BE016D5E7F4FC8010E946B028B89F5
:10178000982F907C09F093C0811186C08B898111BC
:10179000EECF42E050E0BE01615F7F4FC8010E9482
:1017A0006B0242E050E0BE01635F7F4FC8010E94C0
:1017B0006B02C8010E948A02C8010E948A02C80105
:1017C0000E948A02C8010E948A0242E050E0BE01E3
:1017D0006F5E7F4FC8010E946B028F8598898115CB
:1017E000914009F069C02D853E8532272327322795
:1017F0002130310509F060C089899A8981159440AA
:1018000009F075C044E050E0B301C8012C8B3D8B5A
:101810000E946B022C893D896901F1E0AF1AB10881
:1018200029F02FEFC216D20609F428CFC8010E9472
:101830002804C60165C08EEF9FEF62C02CEF3FEF1A
:10184000EBCF2DEF3FEFE8CF41E050E0BE01635F0B
:101850007F4FC8010E946B028D85811113C08D8559
:101860008111F2CFC8010E948A02C8010E948A0237
:10187000C8010E948A02C8010E948A02FFEF8F1AE3
:101880009F0A69CF8D859FEF980F9D87882339F335
:10189000C8010E948A02F6CF8B899FEF980F9B8B1D
:1018A000882309F473CFC8010E948A02F5CFC801CA
:1018B0000E948A021B8A6ACF412C512C89899A89FD
:1018C0009827892798274816590638F4C8010E9496
:1018D0008A028FEF481A580AF1CFEFEF8E1A9E0A4C
:1018E0008C149D0409F043CF26EF3FEF95CF27EFEF
:1018F0003FEF92CF2AEF3FEF8FCF2BEF3FEF8CCF11
:1019000065960FB6F894DEBF0FBECDBFDF91CF91C5
:101910001F910F91FF90EF90DF90CF90BF90AF900D
:101920009F908F907F906F905F904F903F902F90FF
:101930000895CF92DF92EF92FF920F931F93CF9370
:10194000DF93CDB7DEB7AF970FB6F894DEBF0FBE0B
:10195000CDBF7C016A010EE112E01A8309831C8667
:101960001B8688EE93E0A0E0B0E08D879E87AF876E
:10197000B88B86E391E09A878987188F0F8B198E31
:101980001A8E1B8E1C8E84E089A31DA30CA31EA29D
:101990001FA218A619A68091FC059091FD05A091A3
:1019A000FE05B091FF058CA79DA7AEA7BFA78B83AF
:1019B0009C83AD83BE8318861F82AE014C5D5F4F52
:1019C000CE0101960E941E0A81309105B1F4D70123
:1019D000ED91FC910484F585E02D1BA70AA78EA14B
:1019E0009FA1A8A5B9A58CA79DA7AEA7BFA7A60133
:1019F000BE01665D7F4FC7010995AF960FB6F8949B
:101A0000DEBF0FBECDBFDF91CF911F910F91FF9031
:101A1000EF90DF90CF9008952F923F924F925F9278
:101A20006F927F928F929F92AF92BF92CF92DF92EE
:101A3000EF92FF920F931F93CF93DF93CDB7DEB753
:101A4000E3970FB6F894DEBF0FBECDBF7C011A013D
:101A50002B0139010E94A3114B015C0187010D5B31
:101A60001F4FC8010E94B30218161906A4F00E9465
:101A7000A311DC01CB0188199909AA09BB09281611
:101A800039064A065B06D8F062E370E080E090E039
:101A90000E946911E6CF42E250E0BE016F5F7F4FC6
:101AA000C8010E946B028981823011F080E061C11F
:101AB000F8018489958983349105C1F702C08FEFBD
:101AC00058C16D817E818F8198850E9447194B0195
:101AD0005C01F301608371838283938346E050E06D
:101AE000B701685F7F4FCE014D960E945919892B2F
:101AF000E9F6F70180819181A281B3818816990668
:101B0000AA06BB0698F284819581A681B7818815C3
:101B10009905AA05BB0550F289899A89AB89BC89C8
:101B200086879787A08BB18B8EECA82EB12CC8012D
:101B30000E948A02F1E0AF1AB108C9F719A667013D
:101B400082E2C80ED11CF701B696FBA7EAA7C7012F
:101B50008A969DA78CA73C974F0189969FA78EA731
:101B60003897F9ABE8AB1701F6E12F0E311CC5979A
:101B70009BAB8AABF801818D928D181619060CF07B
:101B8000F7C0C8010E948A028333910509F4CBC0D3
:101B9000FCF481309105C9F11CF4892B59F3DCC0A8
:101BA00083309105D1F1069709F0D6C0C8010E9493
:101BB0008A025C0144E050E06AA97BA9C8010E9446
:101BC0006B02412C512CBB24F4E0AF1AB10840C089
:101BD0008A33910509F47BC03CF48533910569F0A3
:101BE000C69709F440C0B8C08B33910509F485C08D
:101BF0008F3F910509F4BECFAFC0C8010E948A0291
:101C0000C8010E948A0289A7B5CFC8010E948A0232
:101C100044E050E068A979A93AC0C8010E948A024C
:101C20005C0144E050E0B101C8010E946B02412C0C
:101C3000512CBB2494E0A91AB1084A145B040CF09F
:101C400099CFC8010E948A02EFEF4E1A5E0AF5CFC3
:101C50004A145B040CF08ECFC8010E948A028FEFF9
:101C6000481A580AF5CFC8010E948A02B82EF70117
:101C7000828D811110C0838D81110DC0848D8111E1
:101C80000AC0858D811107C044E050E0B401C8014D
:101C90000E946B026FCFEEA5FFA54080518062804D
:101CA0007380B401CE0183960E941D058DA19EA173
:101CB000AFA1B8A584159505A605B70529F3BB20E6
:101CC00009F458CFC8010E948A02BA94F8CFC8011B
:101CD0000E948A0244E050E06AA57BA5C8010E94E8
:101CE0006B02F70166A177A180A591A50E94471913
:101CF00066A377A380A791A73DCFC8010E948A025F
:101D000044E050E06CA57DA5C8010E946B02F7017C
:101D100062A573A584A595A50E94471962A773A71C
:101D200084A795A727CFC8010E948A0244E050E00B
:101D3000B601C8010E946B02F70162A173A184A1E0
:101D400095A10E94471962A373A384A395A366A7D4
:101D500077A780AB91AB0ECFC8010E948A02B82E44
:101D6000BB2009F407CFC8010E948A02BA94F8CFB9
:101D700089A5E3960FB6F894DEBF0FBECDBFDF9105
:101D8000CF911F910F91FF90EF90DF90CF90BF9078
:101D9000AF909F908F907F906F905F904F903F900B
:101DA0002F9008957F928F929F92AF92BF92CF9281
:101DB000DF92EF92FF920F931F93CF93DF93CDB7F4
:101DC000DEB7A6970FB6F894DEBF0FBECDBF8C016D
:101DD000762E942E852E20E2B22ECE0101967C0125
:101DE000FC012B2D11922A95E9F78EE192E09AA33E
:101DF00089A38FEF8BA38CA38DA38EA3680183E4AB
:101E0000C80ED11C43E450E0BE016F5D7F4FC60198
:101E10000E944403019609F4BFC081E089838A834C
:101E200086E0A82EAB821C82F801648175818681D0
:101E300097810E9447196D837E838F839887898657
:101E40009A8680E890E09C878B874CE150E0B70150
:101E5000C6010E940C03F7012B2D11922A95E9F778
:101E6000480188E0880E911CF401D70101900D9281
:101E7000AA94E1F740E150E0B701C6010E940C03CB
:101E8000F7011192BA94E9F796E0A92EB12C40E23D
:101E900050E0B701C6010E940C03F1E0AF1AB1088F
:101EA000B1F783E6898392E89A8393E59B838C83D9
:101EB00085E38D8381E08E837F829DE3988797E021
:101EC00099878A8786E0F401DE011B9601900D92C6
:101ED0008A95E1F78CE0898B8A8B62E472E0CE010F
:101EE00043960E947119F8014385BE01675E7F4FDA
:101EF000C8010E947709F8014485BE01655E7F4FE5
:101F0000C8010E947709F8014585BE01635E7F4FD5
:101F1000C8010E9477094EE150E0B701C6010E9456
:101F20000C03F3E07F121EC082E3898384E08A837E
:101F3000F80196859B8397859C8390899D839189E1
:101F40009E8396E39F838887828D8987838D8A8786
:101F5000848D8B87858D8C874CE050E0B701C6015E
:101F60000E940C0387E3898386E08A8391E09B8348
:101F700093E09C838D838FE08E838AE38F838BE352
:101F800088878FEF898749E050E0B701C6010E943A
:101F90000C03C6010E947D03A6960FB6F894DEBF1F
:101FA0000FBECDBFDF91CF911F910F91FF90EF90AA
:101FB000DF90CF90BF90AF909F908F907F900895CB
:101FC0003FB7F89480911B0690911C06A0911D06C6
:101FD000B0911E0626B5A89B05C02F3F19F00196AB
:101FE000A11DB11D3FBFBA2FA92F982F8827820F9F
:101FF000911DA11DB11DBC01CD0142E0660F771FEF
:10200000881F991F4A95D1F7089590E0FC01EA5D79
:10201000FE4F2491FC01EE5EFE4F8491882399F0DF
:1020200090E0880F991FFC01E85FFE4FA591B491E5
:10203000FC01E250FF4F859194918FB7F894EC9199
:10204000E22BEC938FBF0895CF93C82F462F61E00A
:1020500070E00E94A80761E070E08C2F0E94B20738
:102060008111F9CFCF9108958F929F92AF92BF9235
:10207000CF92DF92EF92FF920F931F93CF93DF9354
:10208000B82E4B018A01A22E68E270E00E94B207CE
:10209000C82FD0E069E270E08B2D0E94B207DC2FE0
:1020A000CC27C82B9E013770CB2CD12CC601880FB2
:1020B000991FAC014B5A5A4F6A01FA0180819181F4
:1020C000820F931FA801420F531F4130584098F0D0
:1020D00060E078E07B01E21AF30AA701B4010E94F4
:1020E0002707A8014E195F09B4016E0D7F1DF60187
:1020F0008081918102C0A801B4010E942707A1102C
:102100000EC0C00FD11F4D2F68E270E08B2D0E94D2
:10211000A8074C2F69E270E08B2D0E94A807DF9181
:10212000CF911F910F91FF90EF90DF90CF90BF90D4
:10213000AF909F908F9008959F92AF92BF92CF9251
:10214000DF92EF92FF920F931F93CF93DF93982E1E
:102150008B015A01690164E270E00E94B207E82E27
:10216000F12C65E270E0892D0E94B207FE2CEE246E
:10217000E82AE701C00FD11F9E013770E92CF12C2E
:10218000C701880F991FAC01435B5A4F7A01FA01CE
:1021900080819181820F931FA9014C0D5D1D4130FB
:1021A000584090F000E018E0021B130BA801B501A5
:1021B0000E945707A601401B510BB501600F711F0C
:1021C000F7018081918102C0A601B5010E945707E5
:1021D000CC0DDD1D4D2F64E270E0892D0E94A80713
:1021E0004C2F65E270E0892DDF91CF911F910F9107
:1021F000FF90EF90DF90CF90BF90AF909F900C94A6
:10220000A807FF920F931F93CF93DF93F82EC0E0A0
:10221000D0E08F2D0E94F0078C01892B21F08F2DAB
:102220000E94F007EC01C017D10799F7CE01DF91AA
:10223000CF911F910F91FF90089590E0FC01E6511E
:10224000FF4F3491FC01EA5DFE4F2491FC01EE5EEC
:10225000FE4FE491EE2309F43BC0332339F13330D0
:1022600091F038F43130A9F0323001F584B58F7D2A
:1022700012C0373091F03830A1F03430B9F4809189
:1022800080008F7D03C0809180008F7780938000D5
:102290000DC084B58F7784BD09C08091B0008F7761
:1022A00003C08091B0008F7D8093B000F0E0EE0F0E
:1022B000FF1FE250FF4FA591B4918FB7F894EC91B6
:1022C000611103C020952E2301C02E2B2C938FBFAC
:1022D00008958F929F92AF92BF92CF92DF92EF922A
:1022E000FF926B017C010E94E00F4B015C01C11465
:1022F000D104E104F104F1F00E94E00FDC01CB0114
:1023000088199909AA09BB09883E9340A105B1051E
:1023100070F321E0C21AD108E108F10888EE880EB6
:1023200083E0981EA11CB11CC114D104E104F10486
:1023300019F7DDCFFF90EF90DF90CF90BF90AF9077
:102340009F908F9008952FB7F89460911706709121
:1023500018068091190690911A062FBF08951F92B2
:102360000F920FB60F9211242F933F938F939F9349
:10237000AF93BF938091170690911806A09119060C
:10238000B0911A063091160623E0230F2D3720F462
:102390000196A11DB11D05C026E8230F0296A11DBF
:1023A000B11D209316068093170690931806A093EC
:1023B0001906B0931A0680911B0690911C06A091F5
:1023C0001D06B0911E060196A11DB11D80931B062E
:1023D00090931C06A0931D06B0931E06BF91AF916B
:1023E0009F918F913F912F910F900FBE0F901F9053
:1023F0001895FC018489958908952EE132E0FC014D
:1024000031832083FB014089518962897389FC01F2
:1024100042835383648375830895DC01ED91FC91BD
:10242000008CF18DE02D0994FC019485FB018485DD
:10243000981303C081E0943009F480E0089521E00E
:10244000FC018485843009F420E0822F08950895EA
:10245000CF93DF931F92CDB7DEB76983DC01ED9197
:10246000FC910280F381E02D41E050E0BE016F5FFE
:102470007F4F09950F90DF91CF910895EF92FF92D2
:102480001F93CF93DF93FC01208D243011F080E067
:102490001CC07B01EC0110E0812F0E940809811112
:1024A00002C0188F05C08831E1F31F5F1430A1F717
:1024B000888D843061F3FD86EC861A8E198E20E0BB
:1024C000A70162E00E94C60881E0DF91CF911F91D1
:1024D000FF90EF9008950F931F93CF93DF931F9278
:1024E000CDB7DEB78C01DC01ED91FC910480F58164
:1024F000E02D0995892B51F0BE016F5F7F4FF801E8
:1025000084850E942608898190E002C08FEF9FEFAA
:102510000F90DF91CF911F910F910895FC01848559
:102520000C946308CF93DF931F92CDB7DEB741E0E1
:1025300050E0BE016F5F7F4FFC0184850E946308FD
:10254000181619061CF4898190E002C08FEF9FEFE6
:102550000F90DF91CF910895FC018485843011F0B4
:102560000C94430880E090E008958F929F92AF9280
:10257000BF92CF92DF92EF92FF920F931F93CF9370
:10258000DF936C015B017A01FC01C485C43041F426
:1025900081E090E0F6019383828380E090E057C071
:1025A0008A014130584010F000E018E080E590E0EA
:1025B0000E9423088C2F0E9401114C0163E070E0FF
:1025C0008C2F0E94B207D82F0E942208D73111F019
:1025D000DC3121F48016910648F302C000E010E0DF
:1025E00080E590E00E9423089801A50160E070E07A
:1025F0008C2F0E949C1060E270E08C2F0E942410AF
:1026000062E070E08C2F0E94B20784FD14C063E08A
:1026100070E08C2F0E94B207811106C00E94220830
:102620008C2F0E94B408B4CF0E94220880E590E06D
:102630000E942308E5CF40E162E070E08C2F0E9409
:10264000A8070E942208012B09F4A2CFC701DF913D
:10265000CF911F910F91FF90EF90DF90CF90BF909F
:10266000AF909F908F900895FC018485843011F085
:102670000C94080980E00895CF93DF93FC01248532
:102680002430D1F0EC010E943413843181F088238E
:1026900071F0883161F08C3161F4E881F981048056
:1026A000F581E02DCE01099521E0892B19F420E078
:1026B00001C021E0822F01C080E0DF91CF91089519
:1026C000CF92DF92EF92FF921F93CF93DF93FC01A3
:1026D00014851430A9F1EC0180E590E00E942308F4
:1026E00068E070E0812F0E9424100E9422080E945E
:1026F000A3116B017C01CE010E9434138823B1F039
:1027000061E070E080E090E00E9469110E94A311F6
:10271000DC01CB018C199D09AE09BF09883E9340AD
:10272000A105B10540F38C850E94B408EC85F0E06A
:10273000EE0FFF1FED5BFA4F1182108284E08C8751
:10274000DF91CF911F91FF90EF90DF90CF90089590
:10275000CF93DF93CDB7DEB7C655D1090FB6F89446
:10276000DEBF0FBECDBF789484B5826084BD84B5D2
:10277000816084BD85B5826085BD85B5816085BD7C
:1027800080916E00816080936E0010928100809134
:1027900081008260809381008091810081608093BC
:1027A0008100809180008160809380008091B100E1
:1027B00084608093B1008091B00081608093B0000C
:1027C00080917A00846080937A0080917A008260A0
:1027D00080937A0080917A00816080937A00809162
:1027E0007A00806880937A001092C100E0916D05B4
:1027F000F0916E0582E08083E0916905F0916A05B1
:102800001082E0916B05F0916C058FEC8083109243
:102810007505E0917105F091720586E08083E09185
:102820006F05F0917005808180618083E0916F0574
:10283000F0917005808188608083E0916F05F09150
:102840007005808180688083E0916F05F09170054C
:1028500080818F7D808367E770E08DE595E00E9441
:1028600009058091A90281112AC01092910210924B
:10287000900288EE93E0A0E0B0E080939202909303
:102880009302A0939402B093950286E391E0909313
:102890008F0280938E028EE192E090939D0280934E
:1028A0009C0210929E0210929F021092A00210921F
:1028B000A10284E08093A60281E08093A9028BE4C8
:1028C00092E090930106809300066CE271E080E054
:1028D00090E00E9469111FB7F89480914A0281111B
:1028E00024C0ECE1F1E08491E0E3F1E09491E82F81
:1028F000F0E0EE0FFF1FE85FFE4FA591B491EC9161
:10290000E92321F461E08AE00E941D118AE00E941F
:1029100005108CB580618CBD8CB580648CBD8DE05C
:102920000E9405108BE00E94051080914A028F5F83
:1029300080934A021FBF229A80E590E00E942308FC
:1029400060E880E090E00E94860765E58BE190E01A
:102950000E94860765E58AE190E00E9486070E9452
:10296000220880E090E490934E0580934D0580E02E
:1029700090E6909356058093550580E098E49093F7
:10298000500580934F0580E098E69093580580931A
:10299000570580E090E5909352058093510580E0C3
:1029A00090E790935A058093590580E098E59093BD
:1029B00054058093530580E098E790935C058093DD
:1029C0005B0580E590E00E94230846E050E060E06F
:1029D00071E089E090E00E9457078EE192E09A83CF
:1029E00089831B821C821D821E82CE0103960E9457
:1029F000170A0E9422088091000690910106DC01CE
:102A000092961D921D921D921C929597FC0116A202
:102A100017A210A611A69A961D921D921D921C92A5
:102A20009D9740E65AEE60E070E046AB57AB60AF72
:102A300071AF40EA5FE060E070E0DA964D935D933D
:102A40006D937C93DD97189626E0FD01322F11924D
:102A50003A95E9F7AC01425F5F4F34E1FA01119218
:102A60003A95E9F7E0E0F1E001900D922A95E1F75F
:102A7000FC01EE5BFF4F10820E949005019709F068
:102A800050C080E590E00E9423086091000670919C
:102A90000106625F7F4FCE0101960E941D05CE01A7
:102AA00003960E94170A60910006709101066A5E03
:102AB0007F4FCE0101960E941D0544E050E0BE010B
:102AC0006D5F7F4F81E090E00E94570760910006A4
:102AD000709101066E5E7F4FCE0101960E941D052A
:102AE00044E050E0BE016D5F7F4F85E090E00E94C2
:102AF00057070E9422086091000670910106625EED
:102B00007F4FCE0101960E941D058B819C81AD8176
:102B1000BE818093FC059093FD05A093FE05B093C4
:102B2000FF0568EE73E080E090E00E94691168E6BE
:102B300070E08DE595E00E94090508E511E0D801F7
:102B40008C910E5F1F4F0E940510B1E00C361B07E1
:102B5000B1F778EE472E73E0572E612C712CFE01F1
:102B6000EB5BFF4F6196FFAFEEAF61979E01295B74
:102B70003F4F63963FAF2EAF6397AE01475B5F4F0A
:102B800065965FAF4EAF6597CE01855B9F4F6796A9
:102B90009FAF8EAF67971E019FE3290E311C7E0108
:102BA000A1E4EA0EF11C0091000610910106011546
:102BB000110509F4ECC00E94A3114B015C016801EE
:102BC000BEE3CB0ED11CF60180819181A281B3813D
:102BD000A5019401281B390B4A0B5B0BCA01B901F3
:102BE000683E33E073078105910508F444C0A301F2
:102BF00092010E94551D861A970AA80AB90AD601A1
:102C00008D929D92AD92BC921397F80186A597A5DF
:102C1000A0A9B1A949015A01880C991CAA1CBB1C86
:102C200088159905AA05BB0528F416A617A610AAAB
:102C300011AA09C0821B930BA40BB50BF80186A740
:102C400097A7A0ABB1ABF80182A993A9A4A9B5A994
:102C500088159905AA05BB0528F412AA13AA14AA77
:102C600015AA09C0821B930BA40BB50BF80182AB0C
:102C700093ABA4ABB5ABF80186A597A5A0A9B1A964
:102C8000892B8A2B8B2B61F4EE5BFF4F8081833085
:102C900039F484E08083C8010E949005019602C047
:102CA00080E090E0D801D2964D915D916D917C913C
:102CB000D597452B462B472BA1F4F801EE5BFF4F30
:102CC0002081233011F021110CC01082F8013E96B2
:102CD00084E1DF011D928A95E9F7C8010E94900501
:102CE00003968230910519F0049709F050C080E5F1
:102CF00090E00E9423086091000670910106625FD7
:102D00007F4FCE0101960E941D05CE0103960E94C1
:102D1000170A60910006709101066A5E7F4FCE012E
:102D200001960E941D0544E050E0BE016D5F7F4F9B
:102D300081E090E00E9457076091000670910106C3
:102D40006E5E7F4FCE0101960E941D0544E050E06B
:102D5000BE016D5F7F4F85E090E00E9457070E94A3
:102D600022086091000670910106625E7F4FCE01DD
:102D700001960E941D058B819C81AD81BE8180934F
:102D8000FC059093FD05A093FE05B093FF051092FE
:102D9000B3021092B2021092B40240E550E068EB28
:102DA00071E089E096E00E94990C019709F052C009
:102DB00081E08093080619821A821B821C82FE0120
:102DC000359688E3DF011D928A95E9F761EA71E0A3
:102DD000CE0101960E94661964E474E0CE0101966A
:102DE0000E94661964EB70E089E096E00E943D0461
:102DF0006CE671E089E096E00E946104BE016F5FBD
:102E00007F4F89E096E00E9461046AEA70E089E001
:102E100096E00E94090563EA70E089E096E00E946E
:102E20003D0468EB71E089E096E00E94610466E28F
:102E300072E089E096E00E94610461E970E089E057
:102E400096E00E94090566E272E089E096E00E9441
:102E5000610410C0109208066CC089E096E00E94E0
:102E6000AC12892B09F04CC161E070E080E090E089
:102E70000E94691189E096E00E943C13882309F4BE
:102E80003FC1EBCF5C01BFEFAB1ABB0AB092B302FC
:102E9000A092B20289E096E00E949212F60180832D
:102EA000F501EC54FD4F10826AE971E084EB92E089
:102EB0000E947819892B11F0109308068091B102B5
:102EC000882309F431C189E096E00E943C138823ED
:102ED00009F41AC18091B2029091B3029C012C5462
:102EE0003D4F69018F3831E0930760F21092080678
:102EF000F601108289E096E00E94601389E096E076
:102F00000E943C13882309F407C18091B20290917A
:102F1000B3028C010C541D4F8F3841E0940708F424
:102F200015C110920806D8011C9289E096E00E9413
:102F3000601380910806811107C06BEC70E08DE58D
:102F400095E00E940905D9C08091B402082E000CBA
:102F5000990B8C50914031F469EB70E08DE595E070
:102F60000E94090584EB882E82E0982E8091B4029D
:102F7000082E000C990B8C50914009F4B8C0B40194
:102F800084E494E00E947819892B09F0B0C069E2CA
:102F900072E08DE595E00E946104B4018DE595E055
:102FA0000E94610466E272E08DE595E00E94610492
:102FB00061963FAD61973F9360964FAD60974F9399
:102FC00063965FAD63975F9362968FAD62978F93C1
:102FD00065969FAD65979F936496AFAD6497AF93E9
:102FE0006796BFAD6797BF936696EFAD6697EF9311
:102FF0006E01FDE4CF0ED11CDF92CF9203E312E00D
:103000001F930F9384E494E09F938F930E949219EF
:10301000CE0101969F938F93CC969F938F933F926F
:103020002F92FF92EF925E0123E4A20EB11CBF9299
:10303000AF921F930F939F928F920E949219D50186
:103040002D913C910FB6F894DEBF0FBECDBFD601D7
:103050008D919C918217930731F081E090E0821B63
:10306000930B0E941409F701208131812D968EADBA
:103070009FAD2D978217930731F083E090E0821B7C
:10308000930B0E941409D1012D913C912B968EAD8A
:103090009FAD2B978217930731F085E090E0821B5C
:1030A000930B0E9414092DAD3EAD29968EAD9FADB8
:1030B00029978217930731F087E090E0821B930BEA
:1030C0000E94140929813A8127968EAD9FAD2797DA
:1030D0008217930731F089E090E0821B930B0E94E6
:1030E000140964EB72E084E494E00E94711962E3D5
:1030F00070E080E090E00E9469110E94BD0153CD14
:103100001092B10211E0DFCE89E096E00E94AC128D
:10311000892B09F0DFCEF2CE89E096E00E94AC1256
:10312000892B09F0F2CE01CF65E971E084EB92E0E2
:103130000E947819892B09F4C6CE1092B30210921E
:10314000B2021093B1021092B402BDCE6C01BFEF77
:10315000CB1ADB0AD092B302C092B20289E096E0A9
:103160000E949212F8018083F601EC54FD4F108208
:10317000C5CEEFE1F6E08EE192E09183808312828A
:10318000138214821582EDE5F5E01382128248EE77
:1031900053E060E070E0448355836683778322EDDB
:1031A00031E03183208325EC30E03587248724EC1F
:1031B00030E03787268720EC30E0318B208B21EC04
:1031C00030E0338B228B22EC30E0358B248B26ECE5
:1031D00030E0378B268B118E128E138E148EE5E223
:1031E000F6E0918380831282138214821582EBE2CF
:1031F000F6E0918380831282138214821582E1E3C8
:10320000F6E0918380831282138214821582E7E3B1
:10321000F6E0918380831282138214821582EAEF92
:10322000F5E0918380831282138214821582E2E09A
:10323000F6E0918380831282138214821582EDE37B
:10324000F6E0918380831282138214821582E3E474
:10325000F6E0918380831282138214821582E9E45E
:10326000F6E0918380831282138214821582E8E053
:10327000F6E01482138245835683678370878AEF52
:1032800091E09283818384E0858710820895692785
:10329000962769277827872778270895EE0FFF1F3D
:1032A0000590F491E02D099481E090E0F8940C945D
:1032B000BD1DFB01DC0104C08D910190801921F43A
:1032C00041505040C8F7881B990B0895FB01DC0161
:1032D0000D900020E9F7119701900D920020E1F781
:1032E0000895FB01DC0101900D920020E1F70895A3
:1032F000FB0151915523A9F0BF01DC014D91451708
:103300004111E1F759F4CD010190002049F04D91B0
:1033100040154111C9F3FB014111EFCF81E090E06D
:1033200001970895AEE0B0E0E8E9F9E10C94961D4C
:1033300085E08C838B899C899A838983AE01495E61
:103340005F4F6D897E89CE0101960E942B1B2E96C0
:10335000E2E00C94B21D20FD09C0FC0123FD05C074
:1033600022FF02C07383628351834083089544FD2A
:1033700010C046FD10C0DB01FC01AA0FBB1FEE1FF1
:10338000FF1F1094D1F76A0F7B1F8E1F9F1F31E024
:1033900003C033E001C034E0660F771F881F991F18
:1033A0003150D1F7620F711D811D911D08950F934A
:1033B0001F93CF93DF938C01C8010E946D1CEC0119
:1033C00097FD08C00E94591C892BB1F7B801CE01A6
:1033D0000E94AB1CCE01DF91CF911F910F910895F8
:1033E000A1E0B0E0E6EFF9E10C948C1D8C01C62E53
:1033F0007A0129830E946D1CAC01552729814B322B
:10340000510521F04D32510569F42068CA94C1106C
:1034100002C080E076C0C80129830E946D1C29810A
:1034200097FDF7CF322F3D7FD32E322F307349F5E2
:10343000803339F5BB24BA94BC0C09F44EC0C801E2
:1034400029830E946D1C298197FD47C0382F3F7D3D
:10345000383569F48D2D8264D82ECA94CA94CC2054
:10346000E1F1C8010E946D1C97FF0BC036C026FF1A
:1034700004C02D2D2260D22E03C03D2D3261D32EEB
:10348000CB2C812C912C540120ED280F283080F07A
:10349000D4FE04C0B8010E94AB1C1CC02A3040F00E
:1034A000D6FEF8CF2F7D3FEE320F363098F72750FB
:1034B0004D2DC501B4010E94B7194B015C018D2D42
:1034C0008260D82ECA94CC2059F0C8010E946D1C8D
:1034D00097FFDACFD1FC04C09CCF812C912C5401F2
:1034E000D7FE08C0B094A09490948094811C911C45
:1034F000A11CB11C2D2DB501A401C7010E94AB195F
:1035000081E02196ECE00C94A81DA1E2B0E0EBE88C
:10351000FAE10C948A1D5C017A01CE0101966C01DE
:1035200080E2F60111928A95E9F7F501838040E087
:1035300050E0912C712C70E0A1E0B0E0F90183FC27
:10354000859183FE81918F01982F9F01811103C086
:1035500080E090E07CC08E3519F44115510549F1A9
:10356000E72FF0E0E417F5073CF48D3559F18D3283
:1035700019F4772001F103C0711001C0982E892F32
:103580008695869586958601080F111D892F87706F
:103590003D0101C0660C8A95EAF7F8018081862911
:1035A0008083991559F0991510F49F5FE8CF9150D9
:1035B000E6CF71E004C07724739401C0712C4F5F93
:1035C0005F4FBCCF772019F08E8180628E8371119E
:1035D00003C09924939416C0F6019E012F5D3F4FBE
:1035E000808180958193E217F307D1F7F2CFE11440
:1035F000F10429F0F7018083C70101967C01615035
:10360000912CF9F0C50169A30E946D1C69A197FD79
:1036100016C0282F269526952695F601E20FF11D56
:10362000208130E0AC014770552702C035952795C1
:103630004A95E2F720FDDBCFB5010E94AB1C91104B
:1036400087CFE114F10411F0F7011082C801A196AF
:10365000EEE00C94A61D4F925F927F928F929F9204
:10366000AF92BF92CF92DF92EF92FF920F931F9390
:10367000CF93DF931F92CDB7DEB76C012B015A01B8
:10368000FC0117821682712CF601F380F201F3FC23
:103690008591F3FE8191382F2F01882309F4F3C01F
:1036A00090E039830E94591C3981892B21F0C60191
:1036B0000E94D719E9CF353241F4F201F3FC35917C
:1036C000F3FE31912F01353269F4C60139830E942E
:1036D0006D1C398197FDD5C03817B1F2B6010E9433
:1036E000AB1CD1C03A3239F4F3FC3591F3FE319181
:1036F0002F0151E001C050E0420110E020ED230F06
:103700002A3090F45260612F70E080E090E040E257
:1037100059830E94B719162FF401F3FC3591F3FE7B
:1037200031914F015981EACF052F232F240151FFF9
:1037300003C0111102C0A7C01FEF383619F03C3684
:1037400059F011C0F401F3FC2591F3FE21912F01F2
:10375000283649F4052F08600460F201F3FC259136
:10376000F3FE21912F01222309F48DC0622F70E016
:103770008AE391E029830E94621C2981892B09F444
:1037800082C000FD07C0F501E080F180C50102960E
:103790005C0102C0E12CF12C2E3651F4F601468179
:1037A000578160E070E0202FC7010E94AB196CCFF9
:1037B000233691F401FF11E0C6010E946D1C97FDB4
:1037C00060C0E114F10429F0F7018083C70101967C
:1037D0007C01115089F751C02B3559F49201A70192
:1037E000612FC6010E94851A2C01892B09F045C062
:1037F0003FC0C60129830E94D719298197FD41C086
:103800002F3659F128F4243631F1293649F127C0F1
:10381000233769F02537F9F022C0E114F10429F0CB
:10382000F7018082C70101967C01115071F0C60139
:103830000E946D1C4C0197FD08C00E94591C892BE9
:1038400061F3B601C4010E94AB1CE114F104A9F0BC
:10385000F701108212C0006203C0006101C0006461
:10386000202FA701612FC6010E94F019811105C008
:10387000F6018381807329F406C000FD05CF73949F
:1038800003CF772019F0872D90E002C08FEF9FEFD4
:103890000F90DF91CF911F910F91FF90EF90DF90EC
:1038A000CF90BF90AF909F908F907F905F904F9000
:1038B000089591110C94C41C803219F089508550E0
:1038C000C8F70895FC010590061621F00020D9F7ED
:1038D000C00108953197CF010895CF93DF93EC0194
:1038E0002B8120FF33C026FF0AC02F7B2B838E81C4
:1038F0009F8101969F838E838A8190E029C022FF59
:103900000FC0E881F9818081082E000C990B009787
:1039100019F420622B831AC03196F983E8830EC014
:10392000EA85FB85099597FF09C02B81019611F067
:1039300080E201C080E1822B8B8308C02E813F8111
:103940002F5F3F4F3F832E83992702C08FEF9FEF5A
:10395000DF91CF910895FB01238120FF12C026FD46
:1039600010C08F3F3FEF930761F082832F7D20646B
:103970002383268137812150310937832683992774
:1039800008958FEF9FEF08959927882708958F92C4
:103990009F92AF92BF92CF92DF92EF92FF92CF931E
:1039A000DF93EC01688179818A819B8161157105C2
:1039B0008105910521F464E279ED8BE597E02DE135
:1039C00033EF41E050E00E94231D49015A019B0161
:1039D000AC01A7EAB1E40E94421D6B017C01ACEE90
:1039E000B4EFA50194010E94501DDC01CB018C0DA8
:1039F0009D1DAE1DBF1DB7FF03C00197A109B048B3
:103A000088839983AA83BB83BC01CD019F77DF9113
:103A1000CF91FF90EF90DF90CF90BF90AF909F90AD
:103A20008F9008950E94C71C089588E091E00E943D
:103A3000C71C0895609308017093090180930A01DF
:103A400090930B010895052E97FB1EF400940E949D
:103A50003A1D57FD07D00E94551D07FC03D04EF4B8
:103A60000C943A1D50954095309521953F4F4F4FFE
:103A70005F4F089590958095709561957F4F8F4F1A
:103A80009F4F08950E94771DA59F900DB49F900DA4
:103A9000A49F800D911D11240895B7FF0C94421D21
:103AA0000E94421D821B930B0895A1E21A2EAA1BAD
:103AB000BB1BFD010DC0AA1FBB1FEE1FFF1FA217DE
:103AC000B307E407F50720F0A21BB30BE40BF50BDB
:103AD000661F771F881F991F1A9469F76095709564
:103AE000809590959B01AC01BD01CF010895A29FE7
:103AF000B001B39FC001A39F700D811D1124911DC2
:103B0000B29F700D811D1124911D08952F923F9237
:103B10004F925F926F927F928F929F92AF92BF92DD
:103B2000CF92DF92EF92FF920F931F93CF93DF9389
:103B3000CDB7DEB7CA1BDB0B0FB6F894DEBF0FBEE6
:103B4000CDBF09942A88398848885F846E847D8433
:103B50008C849B84AA84B984C884DF80EE80FD8035
:103B60000C811B81AA81B981CE0FD11D0FB6F894AB
:0E3B7000DEBF0FBECDBFED010895F894FFCF6C
:103B7E00DEADADEFFEED00C0010000000000000064
:103B8E000000CE00CE00CE00CE00CE00CE00CE0085
:103B9E00CE00CE00CE00CE00CE00CE00CE00CE00A7
:103BAE00CE0000000000C8010C03DE018A025202A2
:103BBE00C7013E1228044403B5037D03B3026B0212
:103BCE000D12FD11F911E2010E000F00100011008F
:103BDE001200130006000700080009002F506C7534
:103BEE0067436F6E6E6563746F72436F6E74726F40
:103BFE006C2F416A6178436F6E74726F6C6C657274
:103C0E002E706870000D0A0D0A00323030204F4BB6
:103C1E00003F616374696F6E3D476574436F6E66F6
:103C2E006967266F6C643D007777772E68657964D7
:103C3E006F726E2E62697A0001005E000000000055
:103C4E0000005401D0001D01FB000F019B0100007C
:103C5E000000CE00D000CE00CE00CE00CE00000080
:103C6E000000CE00D000000000002812B512AC12E9
:103C7E0092126B1227128C09990C8E1260133C1340
:103C8E001F12740972091412680900000000BF04A3
:103C9E0000000000CE000D0A00736368616C74654D
:103CAE003A200025643A25643A25643A25643A257B
:0A3CBE00640057495A6E6574000057
:00000001FF
