:100000006CC300009AC3000098C3000096C30000B0
:1000100094C3000092C3000090C300008EC3000090
:100020008CC300008AC3000088C3000086C30000A0
:1000300084C3000082C3000080C300007EC30000B0
:100040007CC300007AC3000078C3000076C30000C0
:1000500074C3000072C3000070C300000C94430B13
:100060006CC30000FCC40000D1C4000066C30000E3
:1000700064C3000062C3000060C300005EC30000F0
:100080005CC300005AC3000058C3000056C3000000
:1000900054C3000052C3000050C300004EC3000010
:1000A0004CC300004AC3000048C3000046C3000020
:1000B00044C3000042C3000040C300003EC3000030
:1000C0003CC300003AC3000038C3000036C3000040
:1000D00034C3000032C3000030C300002EC3000050
:1000E0002CC30000240A270A160A1A0A1E0A5E0AEE
:1000F0002B0A2F0A350A390A3D0A430A470A4B0AD6
:100100005E0A510A550A590A42494720464C540092
:10011000416C6C20646174612073657420746F207D
:100120000072656164426C6F636B00657261736538
:10013000206661696C65640045726173696E670A67
:1001400000457261736520646F6E650A00426C6FD2
:10015000636B732F436C75737465723A200043614F
:10016000726420697320746F6F20736D616C6C2EE4
:10017000004641543136207265736572766520669B
:1001800061696C6564004641543136207772697448
:100190006520504253206661696C65640042616469
:1001A00020636C757374657220636F756E7400469E
:1001B00041543332207265736572766520666169D9
:1001C0006C6564004641543332204653494E464FD5
:1001D000206661696C6564004641543332205042A8
:1001E0005320657874206661696C656400464154EB
:1001F00033322077726974652050425320666169FA
:100200006C65640042616420636C75737465722070
:10021000636F756E740046415433320A0046415490
:1002200031360A00466F726D617474696E670A0038
:10023000466F726D617420646F6E650A004361726F
:10024000642053697A653A20006361726453697A65
:100250006500636172642E626567696E206661691C
:100260006C6564000A534420696E697469616C6945
:100270007A6174696F6E206661696C757265210AB6
:100280004973207468652053442063617264206957
:100290006E73657274656420636F72726563746CEB
:1002A000793F0A497320636869702073656C6563E0
:1002B0007420636F72726563742061742074686562
:1002C00020746F70206F6620746869732070726F7D
:1002D0006772616D3F0A00204D422C20284D42205C
:1002E0003D20312C3030302C303030206279746534
:1002F00073290051756974696E672C20696E766187
:100300006C6964206F7074696F6E20656E746572BD
:1003100065642E000A4F7074696F6E732061726598
:100320003A0A45202D206572617365207468652046
:100330006361726420616E6420736B697020666F04
:10034000726D617474696E672E0A46202D20657285
:1003500061736520616E64207468656E20666F72DB
:100360006D61742074686520636172642E20287248
:1003700065636F6D6D656E646564290A51202D207B
:10038000717569636B20666F726D61742074686546
:10039000206361726420776974686F757420657278
:1003A0006173652E0A0A456E746572206F707469F8
:1003B0006F6E3A200051756974696E672C20796FF1
:1003C0007520646964206E6F7420656E7465722098
:1003D0002759272E0A000A546869732070726F67C4
:1003E00072616D2063616E20657261736520616E5C
:1003F000642F6F7220666F726D61742053442F53A7
:100400004448432063617264732E0A0A4572617323
:100410006520757365732074686520636172642755
:1004200073206661737420666C6173682065726105
:10043000736520636F6D6D616E642E0A466C617327
:1004400068206572617365207365747320616C6CDC
:10045000206461746120746F203058303020666FE2
:1004600072206D6F73742063617264730A616E64CD
:10047000203058464620666F7220612066657720DE
:1004800076656E646F7227732063617264732E0ADF
:100490000A4361726473206C6172676572207468CC
:1004A000616E20322047422077696C6C20626520A3
:1004B000666F726D617474656420464154333220F6
:1004C000616E640A736D616C6C6572206361726445
:1004D000732077696C6C20626520666F726D617441
:1004E0007465642046415431362E0A0A5761726E93
:1004F000696E672C20616C6C2064617461206F6E82
:100500002074686520636172642077696C6C206276
:1005100065206572617365642E0A456E746572208C
:1005200027592720746F20636F6E74696E75653A62
:1005300020005479706520616E7920636861726172
:100540006374657220746F2073746172740A00534F
:1005500044206572726F723A20006572726F723A4F
:100560002000436C656172204641542F444952205B
:10057000777269746553746F70206661696C656425
:1005800000436C656172204641542F4449522077E4
:100590007269746544617461206661696C656400A8
:1005A000436C656172204641542F44495220777252
:1005B0006974655374617274206661696C65640066
:1005C0007772697465204D4252004D425220434873
:1005D000530000000A0B02090C0D0E08070304016A
:1005E000000000000000000000000000000000000B
:1005F00000000000000000000000000000001211D8
:1006000010000000000000000000000000000000DA
:10061000000000000000000000002200250028006B
:100620002B002E00310034000201000005010801FA
:100630000B0100002100240027002A002D003000BB
:10064000330001010000040107010A010505050549
:10065000070508080808020202020A0A080804043A
:100660000404010101010101010103030303030368
:100670000303040707070C0C0C0C0C0C0C0C0202F7
:10068000020206060606060606060B0B0B0B0B0BF4
:100690000B0B010210202008081020401020408081
:1006A0000201020108040201010204081020408036
:1006B00080402010080402018004020180402010C4
:1006C000080402010804020101020408102040800D
:1006D0000102040810204080B01411241FBECFEF87
:1006E000D1E2DEBFCDBF00E00CBF12E0A0E0B2E07F
:1006F000E2E3FEE200E00BBF02C007900D92AA34D5
:10070000B107D9F725E0AAE4B2E001C01D92A432F6
:10071000B207E1F713E0CDE6D3E000E006C0219791
:100720000109802FFE010E943415CC36D10780E0EC
:100730000807A9F7F2D70C94171762CCCF92DF9273
:10074000EF92FF920F931F93CF93DF936C017A0187
:100750008B01C0E0D0E0CE15DF0589F0D8016D91A6
:100760008D01D601ED91FC910190F081E02DC60143
:100770001995892B11F47E0102C02196ECCFC70197
:10078000DF91CF911F910F91FF90EF90DF90CF906D
:100790000895FC01918D828D981761F0828DDF01A3
:1007A000A80FB11D5D968C91928D9F5F9F73928F64
:1007B00090E008958FEF9FEF0895FC01918D828D59
:1007C000981731F0828DE80FF11D858D90E0089526
:1007D0008FEF9FEF0895FC01918D228D892F90E07E
:1007E000805C9F4F821B91098F739927089583E73F
:1007F00094E0F1DF21E0892B09F420E0822F0895B5
:10080000FC01848DDF01A80FB11DA35ABF4F2C91AD
:10081000848D90E001968F739927848FA689B7897C
:100820002C93A089B1898C9180648C93938D848D55
:10083000981306C00288F389E02D80818F7D808324
:100840000895EF92FF920F931F93CF93DF93EC01E4
:1008500081E0888F9B8D8C8D981305C0E889F9897C
:10086000808185FD23C0F62E0B8D10E00F5F1F4F9A
:100870000F731127E02E8C8DE8120BC00FB607FC0A
:10088000FACFE889F989808185FFF5CFCE01B8DFFD
:10089000F2CF8B8DFE01E80FF11DE35AFF4FF0827E
:1008A0000B8FEA89FB898081806207C0EE89FF890E
:1008B0006083E889F98980818064808381E090E0A9
:1008C000DF91CF911F910F91FF90EF900895CF93FB
:1008D000DF93EC01888D8823C1F0EA89FB89808150
:1008E00085FD05C0A889B9898C9186FD0EC00FB61B
:1008F00007FCF5CF808185FFF2CFA889B9898C915B
:1009000085FFEDCFCE017CDFE8CFDF91CF91089559
:1009100080E090E0892B19F06ADF811125C080E02A
:1009200090E0892B41F080E090E0892B21F00E943B
:10093000000081111CC080E090E0892B41F080E034
:1009400090E0892B21F00E940000811113C080E00B
:1009500090E0892BA1F080E090E0892B81F00E944B
:10096000000081110AC008950E940000D8CF0E94A3
:100970000000E1CF0E940000EACF0C94000008952F
:1009800060E070E0CB01089581E0089580E0089573
:1009900080E008950F931F93CF938C01C62F6A3088
:1009A00069F4DC0112968D919C911397DC01ED9115
:1009B000FC910190F081E02D6DE01995F8018281A4
:1009C0009381DC01ED91FC910190F081E02D6C2F81
:1009D000CF911F910F9119940E940817DC01129674
:1009E0008D919C9113976115710579F0FB01019030
:1009F0000020E9F73197AF01461B570BDC01ED9161
:100A0000FC910280F381E02D199408951F920F92BA
:100A10000FB60F9211240BB60F922F933F934F9363
:100A20005F936F937F938F939F93AF93BF93EF9356
:100A3000FF9383E794E0E4DEFF91EF91BF91AF91E4
:100A40009F918F917F916F915F914F913F912F91E6
:100A50000F900BBE0F900FBE0F901F9018951F9216
:100A60000F920FB60F9211240BB60F922F938F9304
:100A70009F93EF93FF93E0918304F091840480812E
:100A8000E0918904F0918A0482FD12C090818091E6
:100A90008C048F5F8F7320918D04821751F0E09149
:100AA0008C04F0E0ED58FB4F958F80938C0401C0CF
:100AB0008081FF91EF919F918F912F910F900BBEAD
:100AC0000F900FBE0F901F9018958F929F92AF922C
:100AD000BF92EF92FF920F931F93CF93DF93FC018E
:100AE000C42F852FD62F972F7901A081B18116971A
:100AF0002D913C91E20FF31F2181328136FD02C01E
:100B000017E501C017E3802E912CA12CB12C6C2F7E
:100B1000782F8D2FA50194010E941215029FC019F4
:100B2000112481E0E81AF108CA3014F4C05D01C054
:100B3000C10FF701C083C22F832FD42F952F232BF2
:100B4000242B252B21F7C701DF91CF911F910F9106
:100B5000FF90EF90BF90AF909F908F9008950F936C
:100B60001F93CF93DF938C01EB01D801ED91FC91A2
:100B7000DF0116970D90BC91A02DA00FB11F149608
:100B80008D919C911597C817D90740F40190F08179
:100B9000E02D6C91C80119952196E7CF15961C920E
:100BA0001E921497DF91CF911F910F9108958F920C
:100BB0009F92AF92BF92CF92DF92EF92FF920F93EC
:100BC0001F93CF93DF93CDB7DEB72D970FB6F89471
:100BD000DEBF0FBECDBF7C01DC018D919C9177FF04
:100BE0000EC0FC0136970190F081E02DEE0DFF1D47
:100BF00021812873203219F0203109F0A3C010E0C0
:100C0000FC0136970190F081E02DEE0DFF1D8181F2
:100C10008873803229F0803131F420E1922E05C0B2
:100C200098E0992E02C08AE0982E1D866E01BDE0E4
:100C3000CB0ED11C092D9601C70147DF5C01EAE00C
:100C40009E1217C0112329F08DE2D5018E938D01DC
:100C50002EC0D701ED91FC9136970190F081E02DE7
:100C6000EE0DFF1D81819281850193FF20C08BE2F3
:100C700019C0D701ED91FC9136970190F081E02DDC
:100C8000EE0DFF1D8181928191FF10C0F50184FF5F
:100C900007C0319796FD02C088E701C088E58083D0
:100CA0008F0180E3F80182938F0101C08501C01A92
:100CB000D10AD701ED91FC9136970190F081E02D9A
:100CC000EE0DFF1D818192818770992784309105F7
:100CD00099F4480184018A149B0480F4BFEF8B1AB5
:100CE0009B0AD701ED91FC910190F081E02DD80194
:100CF0006C91C7011995EECF019721F0B6017727C6
:100D0000C7012DDFD701ED91FC910280F381E02D29
:100D1000B801C7011995B6017727C70120DF2D96C5
:100D20000FB6F894DEBF0FBECDBFDF91CF911F91FC
:100D30000F91FF90EF90DF90CF90BF90AF909F907A
:100D40008F90089570956095509541955F4F6F4FC6
:100D50007F4F11E055CFDC01ED91FC91369701906A
:100D6000F081E02DE80FF91F2181328127703327B0
:100D70002130310509F0F3CE0895EF92FF920F93E1
:100D80001F93CF93DF938C017B01C0E0D0E0F7018C
:100D9000EC0FFD1FE491EE2311F02196F8CFBE0178
:100DA000C801D9DFF7016491662361F0D801ED91A4
:100DB000FC910190F081E02DC8011995BFEFEB1A6D
:100DC000FB0AF0CFBE01C801DF91CF911F910F91B7
:100DD000FF90EF90C4CE8EBD0DB407FEFDCF0895F9
:100DE0008FEF8EBD0DB407FEFDCF8EB508950F9326
:100DF0001F93CF93DF938B01CFD3EB01F1DF8F3FB5
:100E000041F0CAD36C1B7D0B60177107B8F380E00B
:100E100001C081E0DF91CF911F910F9108951F9341
:100E2000CF93DF93FC01828181111DC0358190E059
:100E300082E0831770F0EF01892F806A86958CBD60
:100E4000917011E091279DBD60E08381CED21A831D
:100E50000AC0973080F7880F953010F022E001C06B
:100E600021E0920FE6CFDF91CF911F910895CF93AC
:100E7000DF93FC012281222339F0EC0161E08381C0
:100E8000B4D28FEFA8DF1A82DF91CF910895FF923D
:100E90000F931F93CF93DF9300D01F92CDB7DEB790
:100EA0008C01F62E29833A834B835C83FC0182817B
:100EB000811102C0C801B3DF68E572E0C80197DFA5
:100EC0008F2D806488DF8C8186DF8B8184DF8A812F
:100ED00082DF898180DFFF2011F087E801C085E98A
:100EE0007ADFFCE0FF1201C07BDFF12C79DFF80133
:100EF000868387FF05C0FFEFFF1611F0F394F6CF4E
:100F00000F900F900F900F90DF91CF911F910F9145
:100F1000FF90089520E032E0EAE6F2E0DF01A90167
:100F20001D9241505040E1F7882331F085E58093D0
:100F300068048AEA809369040895CF939B01AC0109
:100F400080917104833039F089E0220F331F441FF0
:100F5000551F8A95D1F768E18AE694E098DF8823E7
:100F600021F086E080936E0409C08EEF15D2C82F61
:100F7000882321F08AE694E07ADF04C08AE694E0D0
:100F800076DFC0E08C2FCF910895FC012181328162
:100F9000287F2260328321830895FC0121813281E0
:100FA000287F2460328321830895FC0121813281CE
:100FB000277C2061328321830895FC0121813281C5
:100FC000277C2860328321830895EC016AE575E06F
:100FD00080E195E0D2DEBE0180E195E0CEDE80E1E9
:100FE00095E0B4D1C0916E04CC2371F16FE475E04B
:100FF00080E195E0C2DEE0911005F0911105369791
:1010000080819181805F9A4FD0DF4C2F50E060E06B
:1010100070E080E195E0CBDDC09170048CE2A4D15A
:101020004C2F50E060E070E080E195E0C0DDE091A1
:101030001005F0911105369780819181805F9A4F5C
:10104000BCDF80E195E082D1FFCF4F925F926F923B
:101050007F928F929F92AF92BF92CF92DF92EF9248
:10106000FF921F93CF93DF93CDB7DEB728970FB6CC
:10107000F894DEBF0FBECDBF81E04CDF1092280494
:10108000409051025090520260905302709054026E
:1010900080904A02C0904B028C9C40011124092C84
:1010A000000CAA08BB08C301B201A50194010E946B
:1010B0001215132F422F512F4115544018F08AEC6E
:1010C00095E086C020932B04D12CE12CF12CA701B4
:1010D00096010E94121520932904C301B201A701B1
:1010E00096010E9412156F5F862F8F73612F629594
:1010F000660F660F607C682B60932A0480914C0217
:1011000080932C0480914D0290914E02A0914F0249
:10111000B091500289839A83AB83BC83840D951D63
:10112000A61DB71D9C01AD0121503109410951098E
:101130002D833E834F835887CA01B901A5019401CD
:101140000E941215B32E422F5B2D41155440E0F43E
:1011500020932F04A70196010E94121520932D04BD
:101160006D817E818F819885A70196010E9412155D
:101170006F5F862F8F736B2D6295660F660F607C95
:10118000682B60932E0408C08FEF80932F049EEF8E
:1011900090932D0480932E04409230045092310499
:1011A000609232047092330489819A81AB81BC8150
:1011B0008093340490933504A0933604B09337049D
:1011C00060E070E0CB01B9DE811103C080EC95E0F6
:1011D000FCDE28960FB6F894DEBF0FBECDBFDF91C0
:1011E000CF911F91FF90EF90DF90CF90BF90AF9085
:1011F0009F908F907F906F905F904F9008958F9207
:101200009F92AF92BF92CF92DF92EF92FF926B01CB
:101210007C0149015A0180E07DDE20E030E0A90137
:1012200067E38AE694E033DEA501940167E18AE68C
:1012300094E02DDE882311F089E014C080917104C0
:10124000833039F089E0CC0CDD1CEE1CFF1C8A9544
:10125000D1F7A701960169E18AE694E018DE8823B8
:1012600059F187E080936E048AE694E000DE80EA1C
:1012700095E021C08CEF90D08823C1F08FEFC81A81
:10128000D80AE80AF80AC814D904EA04FB04C1F031
:10129000C11002C08EE268D068E572E08AE694E090
:1012A000A6DD8111E7CF87E180936E048AE694E0A2
:1012B000DEDD81E895E089DEC12CD12C7601E3CF1B
:1012C00068E572E08AE694E092DD8823B9F08DEF5C
:1012D00082DD68E572E08AE694E089DD882371F0BA
:1012E0008AE694E0C4DD80E195E0FF90EF90DF9026
:1012F000CF90BF90AF909F908F9028C082E1809355
:101300006E048AE694E0B3DD82E695E0D4CF90E007
:10131000FC01EE56F94F2491FC01E45BF94F8491F6
:10132000882399F090E0880F991FFC01EE5CF94F3B
:10133000A591B491FC01E85EF94F859194918FB726
:10134000F894EC91E22BEC938FBF0895CF93DF9349
:10135000EC01E881F9810190F081E02D6AE01995B6
:10136000CE01DF91CF910895CF93C82F61E070E057
:1013700080E195E0F0DCE0911005F091110501901D
:10138000F081E02D6C2F80E195E0199561E070E02F
:1013900080E195E0CF91E3CB1EDD80916A028EBDA6
:1013A00080916B02ECE6F2E00DB407FEFDCF8EBD3E
:1013B00084E0EA36F80711F08191F6CF0DB407FE0C
:1013C000FDCF8FEF08DD8FEF06DD0ADD809370041F
:1013D0008F71853041F083E180936E048AE694E05A
:1013E00046DD80E0089581E00895362F90E0FC010D
:1013F000EE52FA4F4491FC01EE56F94F2491FC0154
:10140000E45BF94F9491992309F46BC0442309F4E8
:1014100055C050E0FA013197E231F10508F04EC0B5
:101420008827EE58FF4F8F4F0C9434158091800021
:101430008F7707C0809180008F7D03C080918000EE
:10144000877F809380003AC084B58F7702C084B5CF
:101450008F7D84BD33C08091B0008F7703C08091B1
:10146000B0008F7D8093B00029C0809190008F776D
:1014700007C0809190008F7D03C080919000877F8E
:10148000809390001BC08091A0008F7707C080914F
:10149000A0008F7D03C08091A000877F8093A00073
:1014A0000DC0809120018F7707C0809120018F7D32
:1014B00003C080912001877F80932001E92FF0E015
:1014C000EE0FFF1FE85EF94FA591B4918FB7F89426
:1014D000EC91311103C020952E2301C02E2B2C93AB
:1014E0008FBF08953FB7F894809120059091210512
:1014F000A0912205B091230526B5A89B05C02F3FDA
:1015000019F00196A11DB11D3FBFBA2FA92F982F29
:101510008827820F911DA11DB11DBC01CD0142E0A4
:10152000660F771F881F991F4A95D1F708958F92EC
:101530009F92AF92BF92CF92DF92EF92FF92D2DF53
:101540004B015C018AE0C82ED12CE12CF12CCADFC2
:10155000DC01CB0188199909AA09BB09883E93408F
:10156000A105B10558F021E0C21AD108E108F1083F
:1015700088EE880E83E0981EA11CB11CC114D10412
:10158000E104F10421F7FF90EF90DF90CF90BF903E
:10159000AF909F908F9008952FB7F89460911C059D
:1015A00070911D0580911E0590911F052FBF089514
:1015B000EF92FF920F931F93CF93DF938C01EB0178
:1015C000EBDF7B010DDC809370048F3F41F4E4DF9F
:1015D0006E197F096D327140A8F381E103C08E3F1F
:1015E00041F08FE080936E048AE694E040DC80E076
:1015F00020C02097C9F021978FEF8EBDF8012FEF03
:10160000CF01801B910B8C179D0738F40DB407FE9A
:10161000FDCF8EB52EBD8193F3CF0DB407FEFDCF68
:101620008EB5C00FD11F888310927004D9DBD8DB30
:1016300081E0DF91CF911F910F91FF90EF9008957E
:10164000CF93DF93EC0120E030E0A90169E08AE666
:1016500094E01DDC882321F080E180936E040BC0B0
:1016600060E170E0CE01A4DFC82F882321F08AE674
:1016700094E0FDDB04C08AE694E0F9DBC0E08C2F47
:10168000DF91CF9108951F920F920FB60F92112400
:101690002F933F938F939F93AF93BF9380911C059C
:1016A00090911D05A0911E05B0911F0530911B055D
:1016B00023E0230F2D3720F40196A11DB11D05C095
:1016C00026E8230F0296A11DB11D20931B058093D0
:1016D0001C0590931D05A0931E05B0931F058091D6
:1016E000200590912105A0912205B0912305019636
:1016F000A11DB11D8093200590932105A093220583
:10170000B0932305BF91AF919F918F913F912F91FE
:101710000F900FBE0F901F901895CF93DF93CDB70A
:10172000DEB7A8970FB6F894DEBF0FBECDBF789492
:1017300084B5826084BD84B5816084BD85B58260D6
:1017400085BD85B5816085BD80916E008160809387
:101750006E001092810080918100826080938100F0
:101760008091810081608093810080918000816000
:10177000809380008091B10084608093B10080915B
:10178000B00081608093B00080919100826080936E
:1017900091008091910081608093910080919000F0
:1017A0008160809390008091A10082608093A1006D
:1017B0008091A10081608093A1008091A000816050
:1017C0008093A0008091210182608093210180910B
:1017D00021018160809321018091200181608093AB
:1017E000200180917A00846080937A0080917A0051
:1017F000826080937A0080917A00816080937A0081
:1018000080917A00806880937A001092C100E09104
:101810008304F091840482E08083E0917F04F0915E
:1018200080041082E0918104F09182048FEC808327
:1018300010928B04E0918704F091880486E0808305
:10184000E0918504F0918604808180618083E0913D
:101850008504F0918604808188608083E09185040E
:10186000F0918604808180688083E0918504F09106
:10187000860480818F7D808362E375E080E195E05E
:101880007CDA83E794E00E94EB03892BD1F34FDEEF
:1018900083E794E00E94EB03892B31F083E794E027
:1018A0000E94C90397FFF3CF66ED73E080E195E0F6
:1018B00064DA83E794E00E94EB03892BD1F383E79A
:1018C00094E00E94C903182F4FDD80E195E03EDDD2
:1018D000193549F065EB73E048C083E794E00E9456
:1018E000C90397FD46C023DE83E794E00E94EB0323
:1018F000892B09F43EC0F1CFA30192012C193D09B7
:101900004E095F09C701B6017ADC80E003DB88EF8E
:101910009FEF90936B0280936A028FEF9FEF9093FB
:101920006D0280936C02C0905502D0905602E090F8
:101930005702F0905802C701B601FFDA882309F474
:101940005FC780915B0290915C02A0915D02B091B3
:101950005E02BC01CD016C0D7D1D8E1D9F1DEDDA5B
:10196000882309F44DC760E372E080E195E005DA71
:1019700026C064E173E080E195E0FFD983E794E05D
:101980000E94EB03892BD1F383E794E00E94C90303
:10199000182FEADC80E195E0D9DC612F012E000CE4
:1019A000770B86E492E00E940C17892B59F463EFC1
:1019B00072E080E195E0E1D980E195E0C7DC0E942A
:1019C0008804FDCF1092710410926E0482E794E0B7
:1019D00090936B0480936A0485E380936D04DCDD4F
:1019E0007B0100916D0461E085E3FFDC85E38FDC22
:1019F00083E38DDC84E38BDC802F89DC61E0802F46
:101A0000F4DC80E480936F048AE694E008DA8AE6E6
:101A100094E02DDA0AE08FEFDED90150E1F720E003
:101A200030E0A90160E08AE694E031DA813041F0EB
:101A3000B3DD6E197F09613D774088F381E051C0C5
:101A40002AEA31E040E050E068E08AE694E01FDAFC
:101A5000853011F481E009C004E0C2D9809370049C
:101A60000150D9F78A3A59F482E080937104809149
:101A70007104823061F0812C912C54010DC08CDDF9
:101A80006E197F09613D7740D8F282E02AC0812C2F
:101A9000912CA12CA0E4BA2E20E030E0A90167E34C
:101AA0008AE694E0F4D9A501940169E28AE694E01B
:101AB000EED9882341F070DD6E197F09613D7740D2
:101AC00058F38AE00EC080917104823009F520E05D
:101AD00030E0A9016AE38AE694E0D9D9882371F05D
:101AE00088E080936E048AE694E0C1D964E672E0EF
:101AF00080E195E042D982E592E086C071D9807C90
:101B0000803C19F483E0809371046AD969D968D95B
:101B10008AE694E0ACD984E080936F04CE0101960C
:101B20008FDD882309F45EC08981807C71F54F8147
:101B3000437050E0542F4427550F550F8885A4E07B
:101B40008A9FC0011124482B592B8985829586953F
:101B500086958370482B4F5F5F4F60E070E02A8569
:101B60002370220F8B8587FB882780F9282B8E8195
:101B70008F7090E0820F911D079704C0440F551F8E
:101B8000661F771F8A95D2F730C0803441F54A85A9
:101B900050E060E070E04F5F5F4F6F4F7F4F89858F
:101BA00090E0A0E0B0E0BA2FA92F982F8827480F27
:101BB000591F6A1F7B1F88858F7390E0A0E0B0E0FB
:101BC000DC0199278827480F591F6A1F7B1FEAE00D
:101BD000440F551F661F771FEA95D1F706C08BE0AB
:101BE00080936E0440E050E0BA0140936602509347
:101BF000670260936802709369024115510561059F
:101C0000710519F489E492E0E0D94150584F6F4FC3
:101C10007F4F9BE076956795579547959A95D1F7B5
:101C20005093650240936402BA0180E090E0D7D7F8
:101C30002DEB37E346E85FE30E94A5164B015C01FC
:101C40006DE372E080E195E098D8E0901005F090A7
:101C50001105B6E0EB1AF108D701ED91FC9111974F
:101C6000E05FFA4F1382ED91FC91E05FFA4FD38071
:101C70001D8620E030E0A901C501B4017BD787FFB4
:101C800007C0B7FAB094B7F8B0948DE2C82E0DC073
:101C9000D701ED91FC91E05FFA4F8181928193FD34
:101CA00002C0C12C02C00BE2C02E28E23BE64EE689
:101CB0005FE4C501B4010E94A116181634F060E07B
:101CC00070E080E09FE300E006C068E071E080E142
:101CD00095E053D8A5C00D1541F02DEC3CEC4CEC33
:101CE0005DE30E94A5160F5FF6CF9B01AC01C50115
:101CF000B401DCD62B013C0146D74B015C016FD708
:101D00009B01AC01C301B201D0D62B013C01D11023
:101D10002EC5D701ED91FC91E05FFA4F8181928150
:101D200092FD25C59E01235F3F4F0AE0B501A40146
:101D300080E195E00E9465055C0101E0C11001C0F1
:101D400000E0BDE0EB2EF12CEC0EFD1EED0CF11CC5
:101D5000EA18FB08E00EE0911005F0911105DF0193
:101D600016970D90BC91A02DA05FBA4F11968D9142
:101D70009C91129787709927F12C049779F400238E
:101D800039F00190F081E02D6C2D80E195E01995FE
:101D9000B70180E195E00E94AF050AC0B70180E17C
:101DA00095E00E94AB06002319F0F501C2925F0195
:101DB000E0911005F09111050280F381E02DB5014D
:101DC00080E195E01995DD2031F120E030E040E23E
:101DD00051E4C301B201B9D72B013C01CFD64B016D
:101DE0005C01E0911005F091110560E3680D019030
:101DF000F081E02D80E195E01995B401990C880BF4
:101E0000990BEFD69B01AC01C301B2014ED62B0159
:101E10003C01DA94D8CFB70180E195E00E94AF058C
:101E200067ED72E080E195E00E94BD0680E195E0FB
:101E30008DDA8BEB810F823008F025C180E195E0CF
:101E400085DA68E371E080E195E00E94BD06E12C4F
:101E5000F12C812C912C540124013501BFEF4B0E44
:101E60005B1EB3E06B1E711C80916602909167024D
:101E7000A0916802B0916902481659066A067B066D
:101E800038F02C013D0121E0421A51086108710827
:101E9000CE010196D5DB882309F45EC09B8596FDB3
:101EA00022C0B301A2014F5F5F4F6F4F7F4F4829A0
:101EB00059296A297B299F73292F220F9C8597FB1B
:101EC000992790F9822F892B082E000C990BAA0BC9
:101ED000BB0B84239523A623B723892B8A2B8B2B1B
:101EE00011F08DE037C080917104A5019401833019
:101EF00071F0F9E0220F331F441F551FFA95D1F7F7
:101F0000A9E0440C551C661C771CAA95D1F760E229
:101F10008AE694E00E94470781112FC4A301920131
:101F200061E28AE694E00E944707811126C420E01E
:101F300030E0A90166E28AE694E00E944707811139
:101F40001CC460E177E28AE694E00E94F706811102
:101F500016C48EE080936E048AE694E00E943707F0
:101F60008BE291E051CE60E072E08AE692E020DB05
:101F7000882309F43EC48AE694E00E943707E09182
:101F80001005F0911105369780819181805F9A4FFD
:101F90000CD8E0911005F09111053697A081B18120
:101FA000A05FBA4F11968D919C91129792601296F4
:101FB0009C938E9311970190F081E02DE05FFA4F92
:101FC00080E38083E0911005F091110536978081C0
:101FD0009181805F9A4F0E94CD0700916A0260E173
:101FE00071E080E195E00E94BD06E0911005F0915E
:101FF000110536970190F081E02DE05FFA4F84E003
:1020000090E095838483402F50E060E070E080E1B1
:1020100095E00E94D70580E195E098D9E091100500
:10202000F0911105369780819181805F9A4F0E94CF
:10203000DD07E0911005F09111053697A081B1817F
:10204000A05FBA4F11968D919C9112979D7F129629
:102050009C938E9311970190F081E02DE05FFA4FF1
:1020600080E28083E0911005F09111053697808120
:102070009181805F9A4F0E94C50761E471E080E121
:1020800095E00E94BD06163419F0113509F097CC81
:1020900080E195E05BD964E272E080E195E00E9426
:1020A000BD0680916402909165028730910518F415
:1020B0008EE591E0A9CD8131910510F482E01BC03D
:1020C0008132910510F484E016C08134910510F43A
:1020D00088E011C08138910510F480E10CC0813096
:1020E000B4E09B0710F480E206C08130904810F401
:1020F00080E401C080E880935F0210915F026DE48C
:1021000071E080E195E00E94BD06412F50E060E063
:1021100070E080E195E00E94D70580E195E016D956
:102120008091640290916502813061E0960710F021
:102130002FE301C020E220934B028131910510F47E
:1021400082E022C08132910510F484E01DC0813804
:10215000910510F488E018C0893FA1E09A0710F4B7
:1021600080E112C0813FB3E09B0710F480E20CC015
:10217000813E27E0920710F480E406C0813C9F4036
:1021800010F480E801C08FEF80934A0280917104BF
:10219000833009F46EC16DE172E080E195E00E9448
:1021A000BD068090660290906702A0906802B09091
:1021B0006902898E9A8EAB8EBC8E10915F02A12E21
:1021C000B12CC12CD12CAD8EBE8ECF8ED8A2C98C95
:1021D000DA8CEB8CFC8C21E0D21AE108F108412C5E
:1021E000512C32015394C701B6012D8D3E8D4F8D78
:1021F00058A118D4DA01C9018F5F9E4FAF4FBF4F6E
:10220000892E9A2EAB2EBB248D8A9E8AAF8AB88ED9
:10221000880C991CAA1CBB1CD501C4018F559F4F6B
:10222000AF4FBF4F8DA39EA3AFA3B8A7D301C201E9
:1022300080589F4FAF4FBF4F898B9A8BAB8BBC8B16
:1022400090E8C91AD108E108F1088DA19EA1AFA1BB
:10225000B8A5481659066A067B0628F449885A88A4
:102260006B887C88C0CF409260025092610260927D
:10227000620270926302CD88DE88EF88F88CC0928B
:102280005B02D0925C02E0925D02F0925E0273010A
:102290006201C81AD90AEA0AFB0AD701C6018058A6
:1022A0009F4FAF4FBF4F898B9A8BAB8BBC8B80936B
:1022B000510290935202A0935302B0935402DA0158
:1022C000C901855F9F40A109B1098115904FA10502
:1022D000B10518F08DE991E097CC81E090E0909302
:1022E0005A028093590281E8C80ED11CE11CF11CEE
:1022F000C0925502D0925602E0925702F0925802D4
:1023000091E2890E911CA11CB11C6D8D7E8D8F8D6B
:1023100098A179D3860E971EA81EB91E80924D02F1
:1023200090924E02A0924F02B0925002A8EA8A16F2
:10233000AFE79A06A104B10410F481E009C081144A
:102340009104B1E0AB06B10410F484E001C086E072
:1023500080934C020E94250881E00E948A078BEE40
:1023600080936A0210926B0280E980936C02EDE622
:10237000F2E090E288E08E0F91938E13FDCF80E023
:1023800092E090937602809375021093770221E099
:1023900030E0309379022093780222E020937A0291
:1023A00090937C0280937B0288EF80937F028D89DB
:1023B0009E89909381028093800280914B0290E0ED
:1023C000909383028093820280914A0290E09093DE
:1023D00085028093840289899A89AB89BC8980931C
:1023E000860290938702A0938802B093890280921C
:1023F0008A0290928B02A0928C02B0928D0280E8A9
:1024000080938E0289E2809390026CD8898C9A8C9A
:10241000AB8CBC8C3A2D292D182D0027DC01CB016B
:10242000800F911FA21FB31F80939102909392027D
:10243000A0939302B09394028BE0E2E1F2E0A5E96D
:10244000B2E001900D928A95E1F788E0E0E0F2E0D9
:10245000A0EAB2E001900D928A95E1F769897A8944
:102460008B899C890E949D07811146CA86E891E06C
:10247000CBCB66E172E080E195E00E94BD0680E092
:1024800090E2A0E0B0E08093510290935202A093BA
:102490005302B0935402A0906602B0906702C090BD
:1024A0006802D0906902A98ABA8ACB8ADC8A109124
:1024B0005F02C12ED12CE12CF12CCD8ADE8AEF8A6D
:1024C000F88E49885A886B887C8820E4521A610803
:1024D0007108C12C80E4D82EE12CF12CC301B2018B
:1024E0002D893E894F89588D9DD249015A0161E855
:1024F000860E911CA11CB11CF7E0B694A79497948A
:102500008794FA95D1F7D501C401880F991FAA1FA6
:10251000BB1F898F9A8FAB8FBC8FD701C601905E8E
:10252000AF4FBF4F8D8F9E8FAF8FB8A390E2591AD8
:1025300061087108898D9A8DAB8DBC8D875F9F4D29
:10254000AF4FBF4FC816D906EA06FB0628F4CD8C5C
:10255000DE8CEF8CF8A0C2CFC0926002D0926102F4
:10256000E0926202F092630280925B0290925C02BF
:10257000A0925D02B0925E02253FAFEF3A0741059F
:10258000510518F484E092E03FCBB6017052C401CB
:10259000880F991F1B01281A390A30925A0220927B
:1025A00059022101612C712CB0E25B0E611C711C7F
:1025B0004092550250925602609257027092580211
:1025C0006D897E898F89988D1ED2C60ED71EE81E12
:1025D000F91EB701A60150526109710940934D02DD
:1025E00050934E0260934F027093500221E0C21646
:1025F00024E0D2062BEFE206F10410F48BE001C0D8
:102600008CE080934C0249A35AA36BA37CA30E9445
:10261000250881E00E948A078BEE80936A0210925F
:102620006B0280E980936C02EDE6F2E090E288E0D4
:102630008E0F7CA16BA15AA149A191938E13FDCF5E
:1026400080E092E090937602809375021093770277
:10265000309279022092780282E080937A0288EFA9
:1026600080937F0280914B0290E09093830280934D
:10267000820280914A0290E09093850280938402C6
:1026800080E090E2A0E0B0E0809386029093870221
:10269000A0938802B093890240938A0250938B02E0
:1026A00060938C0270938D0280928E0290928F02C2
:1026B000A0929002B092910282E090E0A0E0B0E09F
:1026C0008093960290939702A0939802B0939902F8
:1026D00081E090E090939B0280939A0286E090E0E4
:1026E00090939D0280939C0280E88093AA0289E2E5
:1026F0008093AC020E94720A89889A88AB88BC8851
:102700003A2D292D182D0027DC01CB01800F911FB8
:10271000A21FB31F8093AD029093AE02A093AF02AD
:10272000B093B0028BE0E2E1F2E0A1EBB2E0019005
:102730000D928A95E1F788E0E9E0F2E0ACEBB2E0D7
:1027400001900D928A95E1F760E070E280E090E000
:102750000E949D07882309F456C066E070E280E07D
:1027600090E00E949D07882309F44DC04FC08EE27F
:102770008C879E01245F3F4FD8CA8CE0EBCB8AE662
:1027800094E00E9437078EE20E94B40967016FEF60
:10279000C61AD60A8FE1E822FF249FE1E916F10468
:1027A00021F480E195E00E94A609A4E0AA0EB11CE4
:1027B0008091660290916702A0916802B0916902CF
:1027C00088169906AA06BB0610F4760145CB80E16F
:1027D00095E00E94A60920E030E0A90161E18AE6C7
:1027E00094E00E944707882309F4BDCB84E08093DE
:1027F0006E048AE694E00E94370781E291E004CA01
:1028000081E791E001CA8DEE91E0FEC981E00E946E
:102810008A0762E070E280E090E00E949D078823D2
:1028200041F068E070E280E090E00E949D07811135
:1028300003C088ED91E0E8C982E592E5A1E6B1E444
:1028400080936A0290936B02A0936C02B0936D0226
:1028500082E792E7A1E4B1E680934E0490934F049F
:10286000A0935004B09351048FEF9FEFDC0180934D
:10287000520490935304A0935404B093550480934E
:10288000560490935704A0935804B093590461E000
:1028900070E280E090E00E949D07882341F067E0AD
:1028A00070E280E090E00E949D07811103C084ECFB
:1028B00091E0AAC9298D3A8D4B8D5C8DAD88BE887B
:1028C000CF88D88C2A0D3B1D4C1D5D1DC301B20164
:1028D0000E94FF0880E00E948A0788EF9FEFAFEF19
:1028E000BFE080936A0290936B02A0936C02B09356
:1028F0006D028FEF9FEFAFEFBFE080936E0290937A
:102900006F02A0937002B093710280937202909351
:102910007302A0937402B0937502C0905502D090D8
:102920005602E0905702F0905802C701B6010E948B
:102930009D07882391F080915B0290915C02A091A9
:102940005D02B0915E02BC01CD016C0D7D1D8E1D3E
:102950009F1D0E949D07811106C88FEA91E054C90E
:10296000E3E7F4E01382128288EE93E0A0E0B0E0A7
:1029700084839583A683B78388E292E091838083E2
:1029800085EC90E09587848784EC90E09787868734
:1029900080EC90E0918B808B81EC90E0938B828B2C
:1029A00082EC90E0958B848B86EC90E0978B868B05
:1029B000118E128E138E148EA0E1B5E080E2149673
:1029C0008C9314978AE090E116969C938E931597BA
:1029D00082E017968C93179719961C921E9218975F
:1029E0001A961C921A978AE392E011969C938E9302
:1029F0001396FC93EE931297EAE6F4E0128289E1D3
:102A0000848317820895DB018F939F9335D0BF9104
:102A1000AF91A29F800D911DA39F900DB29F900D2D
:102A200011240895A1E21A2EAA1BBB1BFD010DC0A3
:102A3000AA1FBB1FEE1FFF1FA217B307E407F5076E
:102A400020F0A21BB30BE40BF50B661F771F881F4A
:102A5000991F1A9469F760957095809590959B01E0
:102A6000AC01BD01CF010895EE0FFF1F881F8BBF82
:102A70000790F691E02D199409D0A59F900DB49F71
:102A8000900DA49F800D911D11240895A29FB00167
:102A9000B39FC001A39F700D811D1124911DB29F92
:102AA000700D811D1124911D08955058BB27AA2730
:102AB0000ED00DC1FED030F003D120F031F49F3F95
:102AC00011F41EF4F3C00EF4E095E7FBE9C0E92F22
:102AD0000FD180F3BA17620773078407950718F0C0
:102AE00071F49EF527C10EF4E0950B2EBA2FA02DA0
:102AF0000B01B90190010C01CA01A0011124FF27AB
:102B0000591B99F0593F50F4503E68F11A16F040A5
:102B1000A22F232F342F4427585FF3CF46953795A4
:102B20002795A795F0405395C9F77EF41F16BA0B69
:102B3000620B730B840BBAF09150A1F0FF0FBB1F17
:102B4000661F771F881FC2F70EC0BA0F621F731F60
:102B5000841F48F4879577956795B795F7959E3FBD
:102B600008F0B3CF9395880F08F09927EE0F97954B
:102B70008795089571D008F481E0089504D0689491
:102B8000B111D9C00895BCD088F09F5790F0B92FEB
:102B90009927B751A0F0D1F0660F771F881F991FB2
:102BA0001AF0BA95C9F712C0B13081F0C3D0B1E0C4
:102BB0000895C0C0672F782F8827B85F39F0B93FD4
:102BC000CCF3869577956795B395D9F73EF49095B4
:102BD0008095709561957F4F8F4F9F4F0895E89432
:102BE00009C097FB3EF490958095709561957F4F55
:102BF0008F4F9F4F9923A9F0F92F96E9BB27939503
:102C0000F695879577956795B795F111F8CFFAF412
:102C1000BB0F11F460FF1BC06F5F7F4F8F4F9F4F43
:102C200016C0882311F096E911C0772321F09EE8A1
:102C3000872F762F05C0662371F096E8862F70E007
:102C400060E02AF09A95660F771F881FDAF7880FE1
:102C50009695879597F90895990F0008550FAA0B37
:102C6000E0E8FEEF16161706E807F907C0F012169F
:102C70001306E407F50798F0621B730B840B950BA2
:102C800039F40A2661F0232B242B252B21F40895F7
:102C90000A2609F4A140A6958FEF811D811D089594
:102CA00097F99F6780E870E060E008959FEF80ECFF
:102CB000089500240A9416161706180609060895A2
:102CC00000240A9412161306140605060895092E08
:102CD0000394000C11F4882352F0BB0F40F4BF2B77
:102CE00011F460FF04C06F5F7F4F8F4F9F4F0895B7
:102CF00057FD9058440F551F59F05F3F71F04795AD
:102D0000880F97FB991F61F09F3F79F08795089591
:102D1000121613061406551FF2CF4695F1DF08C0B0
:102D2000161617061806991FF1CF869571056105CD
:102D300008940895E894BB2766277727CB0197F975
:102D400008958ADF08F48FEF08950BD0C0CFB1DF6C
:102D500028F0B6DF18F0952309F0A2CFA7CF1124F1
:102D6000EACFC6DFA0F3959FD1F3950F50E0551F32
:102D7000629FF001729FBB27F00DB11D639FAA27D0
:102D8000F00DB11DAA1F649F6627B00DA11D661F1F
:102D9000829F2227B00DA11D621F739FB00DA11D40
:102DA000621F839FA00D611D221F749F3327A00DFA
:102DB000611D231F849F600D211D822F762F6A2F96
:102DC00011249F5750408AF0E1F088234AF0EE0F1B
:102DD000FF1FBB1F661F771F881F91505040A9F728
:102DE0009E3F510570F05CCFA6CF5F3FECF3983E5D
:102DF000DCF3869577956795B795F795E7959F5F8F
:102E0000C1F7FE2B880F911D9695879597F9089528
:102E100081E090E0F8940BC0FC018191861721F0CD
:102E20008823D9F7992708953197CF010895F89409
:022E3000FFCFD2
:102E3200464154313620202000464154333220206E
:102E420020004E4F204E414D452020202000000002
:102E5200240580000000000021049E03EB03C90347
:102E6200DD036704040000000000CA04EE04C80485
:0A2E7200C604C404C0044546510024
:00000001FF
